:400000000080002011000000450600004506000008B500F01FFBC046F8B5224D12232B6000F0AAFC204801F0C7F8012000F0C4FC0C2000F0BBFB1D4A1D4B1A601D4E802724
:40004000FF0537601C4A116802230B4313601B4A1B4B1A6000241B4B1C601B4A136808218B431360FA20C00000F052FC174800F093FB174B1C60174A174B1A6080221206C1
:40008000164B1A60164B1C604022164B1A600820154900F057FB082000F048FB37602C60F8BDC04630001040001BB7000600008004010B400C020B4078002E402D3E000078
:4000C0007C002E4064F02E406CF02E40DC0500000003014040FF00800000014008010B4000010B4004010140D10A000010B572B60022234B1A60002410E0224863001A1999
:400100005200821891881B195B001A5AC31858880004104300F0FCFA0134E4B2012CECD9EE221206184B1A60184A194B1A6099231B04184A1360184A1360184B1978022220
:400140000A431A70164802783C218A4328390A430270197816220A431A70D8221204114B1A60D122104B1A60104A114B1A60D022104B1A60FFF750FF00F0BAFA10BDC04685
:400180006CF02E4024CE01000000024000000FFF0001024000500F4010500F4000700F4001700F4008000440000104403660D800080104401801044010B5064C2378002B9C
:4001C00007D1054B002B02D0044800E000BF0123237010BD18130020000000001848010008B5084B002B03D00748084900E000BF07480368002B00D108BD064B002BFBD0B0
:400200009847F9E700000000184801001C130020480E00200000000030B587B004AD154B1A6804921B792B71134B039300F0CEFC62B6124800F08EFD00F030F9002000F0A0
:4002400099F800240094002000212A1C0C4B00F00BF900940020102103AAF8231B0200F003F908488021090200F0B0F801F0E4FAFCE7C0461CC80100416765009D050000CD
:40028000FFFF00001C48010008B5012000F072FC012000F069FA002000F06CFC322000F063FA012000F066FC782000F05DFA08BD10B5041C012000F069FC201C00F0AEFCCC
:4002C00000F094FC0128FBD100F098FC10BDC04638B5050AC4B2012000F058FC281C00F09DFC00F083FC0128FBD100F087FC201C00F094FC00F07AFC0128FBD100F07EFC36
:4003000038BDC04610B5041C002000F03FFC201C00F084FC00F06AFC0128FBD100F06EFC10BDC046F8B5071C0D1C161C1C1C2A20FFF7E8FF0020FFF7BBFF381CFFF7B8FF13
:400340000020FFF7B5FF301CFFF7B2FF2B20FFF7D9FF0020FFF7ACFF281CFFF7A9FF0020FFF7A6FF201CFFF7A3FF2C20FFF7CAFFF8BDC04610B582B0041C002000217F22B6
:400380007F23FFF7CFFF00226B46DA8016E0002201AB1A8007E0201CFFF79AFF01AA138801339BB2138001AB1B889BB27F2BF2D96B469A1DDB8801339BB213806B46063366
:4003C0001B889BB27F2BE2D902B010BD38B5051C0C1C002000217F227F23FFF7A3FF2C20FFF790FF012000F0D1FB281C211C00F023FC00F0FBFB0828FBD100F0FFFB38BDD8
:40040000F0B54F4680B482B09146019308AB1D88C21DD2B20B1C0F33DBB2FFF783FF2C20FFF770FF002617E04B46203B1B019B190C4AD45C00270CE063B2002B03DA0198AF
:40044000FFF746FF02E0281CFFF742FF6400E4B20137072FF0D901360F2EE5D902B004BC9146F0BD24C80100F0B585B0051C0291171C03930AAB1C8800260AE0F0002818AE
:40048000C0B200940299039BFFF7BAFF01370136F6B23A78002AF1D105B0F0BD08B5FFF7F3FE1120FFF72EFF642000F05DF92620FFF728FF0420FFF7FBFE1320FFF7F8FEE0
:4004C000C020FFF71FFF0A20FFF7F2FE0220FFF7EFFEC120FFF716FF0220FFF7E9FEC520FFF710FF5020FFF7E3FE9920FFF7E0FEC720FFF707FF0020FFF7DAFE3820FFF72B
:4005000001FF3A20FFF7FEFE0520FFF7D1FEB120FFF7F8FE0820FFF7CBFE0220FFF7C8FE2A20FFF7EFFE0020FFF7C2FE0020FFF7BFFE0020FFF7BCFE7F20FFF7B9FE2B20C6
:40054000FFF7E0FE0020FFF7B3FE0020FFF7B0FE0020FFF7ADFE7F20FFF7AAFE3620FFF7D1FE0020FFF7A4FE2920FFF7CBFE2020FFF7C8FE2C20FFF7C5FE08BD00B585B093
:4005800001AB1A8101909980181C0021024A40230FF006FA05B000BD5C24002010B588B00C1C282807D04C2809D0012845D1002000F024FC41E0002000F020FC3DE08B89AF
:4005C000122B18D106E06268D15C04AAD1540133DBB200E000230C2BF5D9002300930020002104AAF8231B02FFF73EFF04A80D211222FFF7C3FFA389152B17D106E0626882
:40060000D15C03AAD1540133DBB200E00023012BF5D9002300930020102103AA1F33FFF723FF03A802211522FFF7A8FF044A13785078000218430EF09FFB08B010BDC0461C
:400640005C24002008B501F071F803680C2B00D1FEE7FEE770B50F4E0F4D13E029686B68AC68002202E001C901C30432A242FAD1E868002202E0002102C304328242FAD1C7
:400680001035013E002EE9D101F056F8FFF7C4FDFEE7C04601000000D0D1010008B50F4A136801218B43136000230AE0032B03D89A000B49505800E00A4899000A4A8850B3
:4006C00001332F2BF2D9FFF711FD0022074B1A60024A116801230B43136008BD00001040000000004506000000000020C00000200323044A1360044A13600022034B1A6013
:400700007047C0463000304030003140000E3F4008B50A1C002101F04DF808BD024B1B68012018407047C0460C002E401F2318401E3B8340181C014B1860704700E100E089
:4007400001BE704738B5041C0D1C1F2802D90020FFF7F6FFA400034B9C4664442068256038BDC0464000002010B5041C06E0084B586800F021FD074B9C46644480231B0234
:400780009C42F4D8024B9868604300F015FD10BD4C0E00200080FFFF08B5034B1B7B584300F00AFD08BDC0464C0E0020F0B557464E46C0B483B0041C00F007FD0190E71E39
:4007C0002D2F74D83F4B1B78DBB2A34208D33E4B1B78DBB29A463D4B1B78DBB2994631E03B4B1B78DBB2A34208D33A4B1B78DBB29A46394B1B78DBB2994623E0374B1B7840
:40080000DBB2A34208D3364B1B78DBB29A46354B1B78DBB2994615E0334B1B78DBB2A34208D3324B1B78DBB29A46314B1B78DBB2994607E02F4B1B78DBB29A462E4B1B78B3
:40084000DBB299462D4BDE5D2F2E09D92A2C07D919222B4B1A60052000F0AEFC192503E0274B1D683F231D40AE4206D2234BDA5D234B1A60052000F09FFC1F4B9C4664442A
:400880002378DBB21F4A13601F4B52461A601F4B4A461A600520FFF77FFFAE420AD9174BDA5D174B1A60052000F086FC02E00020FFF746FF019800F08CFC03B00CBC91462C
:4008C0009A46F0BD40F3FF0F41F3FF0F42F3FF0F43F3FF0F44F3FF0F45F3FF0F46F3FF0F47F3FF0F48F3FF0F49F3FF0F4AF3FF0F4BF3FF0F4CF3FF0F4DF3FF0F30CE010083
:400900002CFF0B4028FF0B401CFF0B4020FF0B4010B5041C0F4A116801230B4313600E4A0E4B1A600E4A1368802109020B431360002809D100200CE00120FFF72DFFFFF7B1
:40094000EDFE002804D1013C002CF5D1102000E0002010BD60F02E400220000078002E4010002E40034B1868C0231B02184000D00120704700010B4010B50D4B1A68012144
:400980008A431A601A68022082431A60094A10683024A043203C204310601068093CA043014311601A68802109060A431A6010BD00F02E4000FF2E4038B51D4B1B680124F9
:4009C0001C40002802D0012816D02BE0184B19680122914319601968022081431960154B19682E3081432038014319601968093881430A431A6018E00D4B1A6802218A432C
:400A00001A600C4A10680725A84301431160116830208143103801431160196801220A431A6002E00020FFF78BFE201C38BDC04600F02E4000FF2E4008B500F0C6FB044A6E
:400A40001368C02109020B43136000F0C2FB08BD00010B4010B500F0B8FB08490A68084B1A408024E40122430A600A6813408022120213430B6000F0ACFB10BD00010B4074
:400A8000FF3FFFFF70B5061C00F09FFB041CFFF769FF002803D0FFF7DDFF012500E000250848331C0340084A106808490840184310601368012D01D1FFF7BEFF201C00F049
:400AC00088FB70BD0404040010020B40FBFBFBFF10B5244B1B685B0715D5234B5B685B070ED5224B596A042001401F4C62688A4362605A6A82435A629B69002B00D09847F8
:400B00000420FFF7BFFF174B1B685B0518D5164B5B685B0510D5154B596A8022D2001140114842688A434260596A114A0A405A62DB69002B00D098478020C000FFF7A2FFAF
:400B4000084B1B685B030CD5074B5B685B0304D5064B1B6A002B00D098478020C002FFF791FF10BD10020B40600E002034130020FFFBFFFF04490A68FD231A404000FB3BB6
:400B8000184010430860704700010440031C04490868FE220240012018401043086070470001044008B500F053F808BD08B500F075F808BD08B5044A1368802109060B4398
:400BC0001360FFF7EFFF08BD0000244008B5064B1B78002B04D1FFF7E9FF0122024B1A70FFF7E8FF08BDC0465C130020024B1B681F2018407047C04608032440054B1A6860
:400C0000802149020A431A601968034A0A401A607047C04604032440FFFFFEFF044B1B681F221340082BF9D0024B18607047C046080224404002244070B5061C0D1C0024C0
:400C400003E0305DFFF7EAFF0134AC42F9D370BD074B1A68F02109060A431A601A68F02109050A431A60034B1A88034B1A607047000102405E130020880F244005490A68E8
:400C8000054B13408006C02212051040184308607047C04620002440FFFFFFF308B5124A124B1A60124A134B1A60134B134A13600721134A1160134A13600023124A1360C4
:400CC000124A1360124A1360124A1360124A1360124A1360124A13601268124B1A800020FFF7CCFF08BDC0460F000001000024400100008020002440070100800003244095
:400D0000040324400002244004022440880E2440C80E2440480F2440080F2440C80F2440880F24405E13002008B500F041FA08BD08B50023044A1370044A1370044A137047
:400D4000FFF7F2FF08BDC0465F240020582400205E24002010B590B0041C0BA82049142200F01FFD1F4B1B78002B04D1FFF7E0FF01221C4B1A70002C2FD01B4B1C6008ACB6
:400D800005AA099206AB089302212181193119805980173919710823137000F043FD201C1621694400F024FE002817D1052300930023019302930D480D49D82212010BABAD
:400DC00000F06CFD002809D101220A4B1A700A4816210E320EF0CCFD00E0012010B010BD60CE010060130020502400205D0F0000C80000205624002074CE010008B502280A
:400E000032D81D4B1B78042B30D11C4B1B785B072FD400280BD11A4B1A1C40321E2111822022596C0A805B6C10325A800EE001280CD1134B1A1C403296211182C822D200C7
:400E4000596C0A805B6C8022D2015A800D4B18700B4840300CF0C2FD00280CD1074A117804230B43137006E0012004E00420FF3001E00420FF3008BD562400205F24002064
:400E8000680E00205E2400207047C04603784078000218437047C04638B583890F2B20D1041C04300021221C31330EF079FD051E11D16068FFF7EAFF830706D50A4B1B6858
:400EC00082204000211C984705E0074B1B680620FF30211C9847054A137801218B43137000E00025281C38BD502400205F240020024B00225A701A707047C0465C240020E7
:400F000010B582B0041CFFF7C7FF0A4B1B78DB070ED4002809D001A912238B70A3890B80C87020680DF0A6FE02E020680DF024FF02B010BD5F2400208379002B07D0002075
:400F40000BE0C25C002A07D10133DBB200E00023052BF6D9002000E001207047F0B583B0051C0C1C814A117801230B4313704C2800D9EAE083007E4AD3589F4601AE072712
:400F8000377000237370301C02F078FC377001237370301C02F072FC00F040FC754B1E68301CFFF7C9FF00280CD0301C00F048FC704E30680021FFF767FF30680121FFF7F5
:400FC00063FF25E06C4B1B786C4A12783F210A4092010B4013436A4A127820390A4012031343684A127860310A4052041343664E33701A0A72701B0CB370301C00F020FC14
:40100000301C0021FFF740FF301C0121FFF73CFF03200CF077FB01A85C49022200F0C1FB01A80CF08DFB0422594B1A708DE02278584B1A7089E02378002B00D085E06378CC
:40104000002B06D1544B0022DA809A80534A1A606360464A137801218B43137075E0434B1B789B0671D44E4B1B78102B02D105224B4BDA704B4B187849490CF06DFC01AB6B
:401080001880002804D0484B1B68362001A99847364A117801230B43137056E002223C4B1A7052E002223A4B1A704EE00422384B1A704AE0364B1B78022B46D02B4A1278F8
:4010C000D20742D5294A1278520708D50322304B1A70264A137804218B43137035E0234A1278120708D50422294B1A701F4A137808218B43137028E0032B26D10422244BDC
:401100001A702A4B1B78002B1FD10120FFF776FE00281AD103221E4B1A7016E02148211C022200F03EFB00221A4B1A700DE0FFF7DFFE0AE06188162900D9172120880DF0CA
:40114000A3FD02E0201CFFF7DBFE084B1A7811231A4209D0054A137801218B431370124B1B68281C211C984703B0F0BD5F24002064D00100BC0E00207CF2FF0F7DF2FF0FEC
:401180007BF2FF0F78F2FF0FC00E002098D10100562400205824002064130020480E0020840F00205C240020502400205E2400207047C046000000000230800803D0013895
:4011C000FDD1C046C046C0467047EFF3108072B6704780F31088704708B5FFF7F6FF044A136804218B43136030BFFFF7F2FF08BD10ED00E00160704701607047324B1A78B7
:401200001202324B1B781A43314B1B781B02314909780B4330498B4201D1072A06D0D42109018B4206D1042A04D102E02B4B042200E02A4B2A490B602A4B1A602A4B1B784B
:401240001B022A4A1278134380229201934202D0002B02D002E0264B00E0254B254A1360254B1B781B02254A12781343244A934205D0244A934204D0052B05D103E0224BAB
:4012800002E0214B00E0204B204A1360204B1B681B09204A1268AA2A15D1012B13D9164B1B780E2B0FD11C4B1B781B021B4A127813431B4A13601B4B1B781B021A4A1278AB
:4012C00013431A4A1360704759F1FF0F58F1FF0F5FF1FF0F5EF1FF0F580B0000580D00006C002E4074002E405BF1FF0F5AF1FF0F0220000078002E405DF1FF0F5CF1FF0FAA
:401300000F0F000005050000050F000080002E40EC0F00F0E00F00F06DF2FF0F6CF2FF0F84002E406FF2FF0F6EF2FF0F94002E4008B5FFF731FA08BD08B5FFF715FA08BDE5
:4013400008B500F04FF808BD08B500F053F808BD08B500F04FF8034800F02EF8032000F031F808BD2114000008B5024800F04AF808BDC04621140000004870470202000030
:401380002B2070472B2070472B2070472B2070472B2070472B2070472B2070472B2070472B2070472B2070472B2070477047C0460120704701207047014B18677047C04622
:4013C0000000002010B5041CFFF7FFFE044A1368C0218B43A4011C431460FFF7FAFE10BD0CE400E080225201014B1A607047C04600E100E080225201014B1A607047C046C9
:4014000080E100E010B5041CFFF7F4FF201CFFF7D3FF0320FFF7D6FFFFF7E4FF10BDC04608B513F0E5F908BD002243088B4274D303098B425FD3030A8B4244D3030B8B4244
:4014400028D3030C8B420DD3FF22090212BA030C8B4202D31212090265D0030B8B4219D300E0090AC30B8B4201D3CB03C01A5241830B8B4201D38B03C01A5241430B8B42FF
:4014800001D34B03C01A5241030B8B4201D30B03C01A5241C30A8B4201D3CB02C01A5241830A8B4201D38B02C01A5241430A8B4201D34B02C01A5241030A8B4201D30B0240
:4014C000C01A5241CDD2C3098B4201D3CB01C01A524183098B4201D38B01C01A524143098B4201D34B01C01A524103098B4201D30B01C01A5241C3088B4201D3CB00C01A37
:40150000524183088B4201D38B00C01A524143088B4201D34B00C01A5241411A00D20146524110467047FFE701B5002000F0FCF802BDC0460029F7D003B5FFF775FF0EBCFB
:401540004243891A1847C04603460B437FD4002243088B4274D303098B425FD3030A8B4244D3030B8B4228D3030C8B420DD3FF22090212BA030C8B4202D31212090265D0D8
:40158000030B8B4219D300E0090AC30B8B4201D3CB03C01A5241830B8B4201D38B03C01A5241430B8B4201D34B03C01A5241030B8B4201D30B03C01A5241C30A8B4201D35B
:4015C000CB02C01A5241830A8B4201D38B02C01A5241430A8B4201D34B02C01A5241030A8B4201D30B02C01A5241CDD2C3098B4201D3CB01C01A524183098B4201D38B01BB
:40160000C01A524143098B4201D34B01C01A524103098B4201D30B01C01A5241C3088B4201D3CB00C01A524183088B4201D38B00C01A524143088B4201D34B00C01A524105
:40164000411A00D201465241104670475DE0CA0F00D04942031000D34042534000229C4603098B422DD3030A8B4212D3FC22890112BA030A8B420CD3890192118B4208D34C
:40168000890192118B4204D389013AD0921100E08909C3098B4201D3CB01C01A524183098B4201D38B01C01A524143098B4201D34B01C01A524103098B4201D30B01C01AAB
:4016C0005241C3088B4201D3CB00C01A524183088B4201D38B00C01A5241D9D243088B4201D34B00C01A5241411A00D20146634652415B10104601D34042002B00D54942EE
:40170000704763465B1000D3404201B5002000F00BF802BD0029F8D003B5FFF715FF0EBC4243891A1847C0467047C046014B18687047C046101300200E4B70B500251E1C91
:401740000D4CE41AA410A54204D0AB00F35898470135F8E71BF02AFD084B00251E1C084CE41AA410A54204D0AB00F35898470135F8E770BDB8D10100B8D10100B8D101005F
:40178000C0D1010030B50024944208D0035D651C0C5DA34201D0181B02E02C1CF4E7002030BD002310B5934203D0CC5CC4540133F9E710BD031C8218934202D019700133CD
:4017C000FAE77047134A1088810703D08107890F401A001D11791030484381B25088820703D08207920F801A001D800040180A494030098980B2CA0701D0503080B289078A
:4018000006D504495422091F09785143081880B270470000920F00207813002010B501F00BFF10BD10B501F0C9FF0BF0D1FD10BD10B501F007FF10BD10B500F055FA10BD5D
:4018400010B50749044609780220002907D1204601F054FF002802D120460CF063F810BD3011002070B504460120002C12D02368002B0FD0616800290CD0074D06222889A7
:40188000208118462968FFF78CFF6968606809780170002070BD000078130020FFB585B0002768460E9D07734F481C460078002802D0082009B0F0BD10990F980190009542
:4018C000029105A807C800F001F90028F2D16946264603AB84460873002C19D0002115E08A00B75A082F09D990198078002805D0083FB7521878401C187005E0002914D0C3
:401900000027B75290198770491CC9B2A942E7D360460028CED10F98002809D0109901F03BFA002804D00120C4E701208446EFE701F088FE2D480021416081600599016057
:4019400021888180022D07D3A1798171A17AC171A1890181218A418100211EE0481C19E082008B00A75AE65ABE46BE4211D26F463E80B4461E190296B678BE7001967646A6
:40198000E6521719029EBB78B3706646A652019EBE70401CA842E3D3491CA942DED3134822460C3000906846037B0799069800F015F90028B8D168460B4C007B60700B4810
:4019C0000C3001F07BFE0028AED1084907480C3108F0E4FF0028A7D108F0FEFF0028A3D10121217066E700008C0F00206C130020F8B5054633480E460078002802D00224F8
:401A00002046F8BD002E5BD000242F49002D16D02A89D0070DD02868002808D003881B3BE12B04D24088FB2801D81B2801D2012409E0900707D56868002804D1F7E70020A3
:401A4000088108604860002CDAD11F482F8907811C481B21801D018041800421017119490020891C0870F80705D016480622801D2968FFF796FE1449B80703D56A68114869
:401A8000127882700F480D46801D0860001F486001F05AFE0B48801D01F048FE28890FF073F828890FF0DAF903461033FFF78AFE1F21C018890140180249308088809FE799
:401AC00001249DE78C0F002078130020FFB58446384F1C460020BB883F78054602460646002F11D100290ED0029999420BD36146002908D0002C06D00A99002906D02E4B46
:401B00000B99994202D2012004B0F0BD002144E0AB001F19BF78002F3BD0E35A002B38D07B43591889B22B0000F04AF8050410161C253100A7782388BC46FF27233BEB37ED
:401B4000BB4222D26346032B1FD322E0A388002B1FD0302B19D31CE02389002B19D0282B13D316E0A289002A13D01346134F233BBB420AD20DE0268A002A0AD033460F4F90
:401B8000233BBB4201D2964203D901200EE0002001E000280AD16D1CEDB2099B9D42B7D31C2463435B1802998B42ACD89642AAD8AAE700008C0F002079020000BAFF0000DC
:401BC00030B47446641E2578641CAB4200D21D46635D5B00E31830BC18470000FFB583B0002469460C801F4606468C80002806D00598002803D004983043800701D0012400
:401C000066E0002FFBD03449049809888842F6D3FFF7AAFBFFF798FB00F012FC002855D100F07AFD002851D12C49084601F0E8F805042D0C4AD12A4804990660818000217E
:401C4000C18007810C98007AC00704D0684601F012FD040007D10C98007A800703D501A801F01EFD0446BF1DFEB2002C20D13146059800F05DF804001AD10FF0FDF80400F3
:401C800016D16A461088928808368518144AF1B29088D288AEB29319984207D3401B801A80B201F09DFB050007D000E0FF25012400F05EFA002D04D008E0F8B200F01CF938
:401CC000F6E700F081FA07490120087000F0CAFB204607B0F0BD0000900F00201D1E000084130020980F002010B503480078012801D101F017FA10BD980F002070B5084B2B
:401D00000446DA889E8800205518B54206D81D68AA182260DA885118D98070BD032070BD84130020014800897047000084130020F0B587B007460D460020890000900691C2
:401D40006846FFF7DBFF844600285DD1304800990160002117E02E4B88001A680629115406D22C4C0419667882185670628805E0C419203CA67A8218567022891B68C018EB
:401D8000491C4280C9B2A942E5D300242DE0601CC2B2059025E01E4FA30039689600581840887118039604904E88B04217D938466F46FE80B6464F786E4677710297049FEA
:401DC0004F800168039F5E18767879184E700168764659184E800068029F18184770521CD2B2AA42D7D30598C4B2AC42CFD36046002809D168460699FFF780FF844600287B
:401E000002D1054900980860604607B0F0BD00009C0F0020E0D10100A00F00207047000010B5002809D005494A68002A05D0011F08788000105801F081FA10BD9C0F002023
:401E400010B50446FFF76EFFC0B2801DA0420CD307484068002808D0A100405801F0E0F9002801D00470001D10BD002010BD00009C0F0020F8B516460D460446FFF752FF2A
:401E8000C0B2801DA04203D20020C0430090F8BDB2B2E9B2684601F0E9F90099481C03D0024AA000526811500098F8BD9C0F0020F8B50746FFF736FF801DC6B20A490020D8
:401EC00005460C680DE06178002907D06188B94202D32078FFF7B4FF002804D1241D6D1CEDB2B542EFD3F8BD9C0F002010B5002801D0FFF795FF10BD70B5064609480025C8
:401F000004680BE06178002905D062882078121D0023FFF7AFFF241D6D1CEDB2B542F1D370BD00009C0F0020FFB581B00A9F16000C4620D000F0F2F8054604281BD0002F8E
:401F40000CD03846FFF7B4FF20492A0151184860002810D03A460499FFF723FC1B4928010E504618778101980570200406D47D20C000444304E0FF2005B0F0BD6404640C11
:401F800000F0BAF80746042807D000F04FFAA0420BD800F04BFA201A03E0204600F0AAFA0020F06035720020E6E700F03FFA009000F0B6FA00980121001B009000F0ECF84F
:401FC00002493A0151180098C860E6E790130020F8B5060116483418217A042903D0E068002802D017E00020F8BD00F01FFA054600F096FA00F0A0F804280CD001010C48E1
:402000000F18F8680021451900F0C6F80020F860284600F06FFA6068054D002801D0FFF765FF042020720020A8516081E060DAE790130020FEB500266A463046012325493B
:40204000050169180D7A042D02D0C96800291BD000211154401CC0B20428F0D300246846005D002830D01B48210108184189476805680291002101604160042241810272D3
:40208000C160002E02D015E01354E3E700F054F804280ED001010F4808180190C6680021304600F079F801980021C160304600F021FA0126002D07D038460299A847002FA5
:4020C00002D03846FFF712FF641CE4B2042CC6D3FEBD0000901300200EB5002005216A460090118150810348694600680FF029FD0EBD0000A40F0020074A00200101891847
:402100000B7A042B02D0C968002903D0401CC0B20428F3D370470000901300200549002002015218127A042A03D0401CC0B20428F6D370479013002030B50A4B04200A4C59
:4021400000210A011219157A042D06D0D268002A03D09A4201D808461346491CC9B20429EFD330BDFFFF0000901300207047000030B50020074C05460423020111190B7237
:40218000A5504D60401C4D81C0B2CD600428F4D330BD00009013002030B5094C00231A011219157A042D04D0D568002906D02D18D5605B1CDBB2042BF1D330BD2D1AF7E71B
:4021C00090130020002070471CB5002469460C70142001902346054A05480FF0B7FC04480068401C00D1FF2420461CBD45220000A40F00203EB5124A0146FF20002301242F
:40220000126800290DD0012914D0042908D104206946009308814B8110460FF092FC80B23EBD6846009304814381694610460FF083FCF4E768460093048143816946EBE74C
:40224000A40F002070B545890468416800890300FFF7B6FC08280509091E22282628002007F046F81EE0022908D0C8B22A4621460DF0F6FD2046FFF739FE13E002202A46A3
:4022800021460DF0EDFD2946204600F00DF809E000200FF055F905E02046FFF7CBFE01E0FFF784F8002070BD014B0022DB681847A80F002070B5448905680089022803D03A
:4022C000032809D0FF2070BD2246094C0023A46829460120A04708E0FFF7AAFA241DA2B200232946022008F00CFA002070BD0000A80F0020704700000248002141600180FA
:4023000041807047A80F002070B50C46002186B016460391012802D0022859D116E003A9012008F043FA01281BD1039D324621462846FFF736FA009528780190022069468A
:4023400008814E816846FFF7B5FF41E0214D002B686809D0049004A9022008F027FA01281DD0022006B070BD002812D0298840182146FFF716FA28880024801980B22880EC
:402380006988091D884206D12C801348FFF792FF03E00320E6E788421AD96C6018E004986860E278A378110219430B4A698000231060E3565360032313815181A1788170E8
:4023C000E178C1706178417021780170042028800020C7E7A80F0020D01300203EB515460C46022803D004280CD000203EBD0091019002206946088107484A8100680FF08E
:40240000A0FB07E00DF02CFD044B0022DB6829462046984701203EBDA40F0020A80F0020014AD16090607047A80F0020034801688068081A0A21484300097047DC13002089
:4024400010B5FEF785FF482204490548FFF7A9F903490120C870002010BD0000FCD10100E017002010B5FEF76BFF10BD70B5134C2368002B08D0207B1149C20705D040082D
:40248000400020738868A08070BD88680B4AA18880B29268814203D90A4D691A091802E0814202D2411A5118A160A080A0689842EAD30FF063FB00F013F870BDDC13002047
:4024C000C0102E40FFFF000010B508461946FFF7A7FF10BD704710B5FFF780FF10BD000003480021016041608160C16070470000DC130020024610B5FF20002A0CD0FFF7A9
:40250000EFFF064C0321207B0843207310010A21FFF710F82060002010BD0000DC13002000B504480A21806848430209FFF7D8FF104600BDDC1300200248007B8007C00F54
:4025400070470000DC13002010B54B490868002802DA4A4B01221A70022290430860484800694549C00B4031096A0246C907C90F0A4259D0012000F097FA3F480E216C3098
:40258000FEF73AFE3E4820218430FEF735FE3C4814219C30FEF730FE3948FF21C131A430FEF72AFE3648FF212F31B030FEF724FE33483449BC30FEF71FFE31483249AC3064
:4025C000FEF71AFE30492E48491CB430FEF714FE2B482E49B830FEF70FFE29482C49CC30FEF70AFE26482B490830FEF705FE24482949A830FEF700FE214828498830FEF79A
:40260000FBFD1F4826498C30FEF7F6FD1C481921C9029030FEF7F0FDFEF7F0FDFEF7ACFEC0B2022812D01FE000290BD0002101420AD0114801216030FEF7DEFD0120FEF7EC
:402640007BFE97E70121F2E7FF2010BD15491648FEF7D2FD14481549001DFEF7CDFD124800210830FEF7C8FD54200449C043891C0870002010BD000000F02E40B80F0020E6
:4026800000002E40320300002F3F00003102000010520000EC160000FA12000031D000003AE300009956000080012E40F80F000070B50646581C80B245086D00002408E086
:4026C000304600F0C1F81055000A1119A41C4870A4B2AC42F4D3D80705D0D0182038D15CC47FD454C17770BD30B50A4C002100195B1E07E0541864782502545C2C430480C7
:40270000891C89B29942F5DB994201D1515C018030BD000000102E4010B5FF2000F0C4F90F49FF2048700E481021801D41800121417001700A490020C91C4870FFF704FFD6
:4027400004000AD100F010F907210648FEF752FD044807211830FEF74DFD204610BD0000B80F0020CC112E4070B5002405465B1E0AE0284600F068F8010A161971702D1D4D
:402780001055A41CADB2A4B29C42F2DB9C4203D1284600F059F8105570BD000070B500210A4D5B1E0AE0541864782602545C344346193480001D891C80B289B29942F2DB20
:4027C000994202D1515C4019018070BD00102E40F0B50599091FCFB200217E1E0BE0541864782502545C2C43164D45192C80001D891C80B289B2B142F1DBFC0712D01C7803
:40280000515C24020F4A0C4381180C809C785D78001D210280B2294384182180001D80B2D9780CE059781A7809021143054A84182180001DD9789B78090280B21943801868
:402840000180F0BD00102E40014940180088704700102E4010B50B490020487000F084F8002000F047F9002000F034F907210648FEF7C0FC044807211830FEF7BBFC0020B4
:4028800010BD0000BB0F0020CC112E4010B50B46062812D006DC01280CD0032801D1FFF7D9FF10BD0A28FCD00B28FAD105480078107010BDFFF730FF10BD1146184600F0CC
:4028C00035F910BDBE0F0020F8B5244DAC6A0127A007234E002816DA307806280ED1286A384328621F480069F903084381B21D481030FEF781FC042000F0D6F81748022153
:402900002830FEF777FCE00718D000F05FFF01280FD1002000F0ACFF062000F0C5F81049FF20C91E48707078002802D1686B384368630A4801212830FEF75CFCE0050BD532
:402940003078042802D1052000F0AEF80348FF2101312830FEF74EFCF8BD000040F02E40BB0F002000002E4010B503212348FEF743FC0120FEF7DCFC20483038406A204CBA
:4029800080076178800F890001431C480C38FEF733FC6078002808D0401E022181401820FEF7B8FEC000083800E0B82081B21548FEF722FC1348032109021438FEF71CFC54
:4029C00010481149B830FEF717FC612189010F48FEF712FC0D480321001FFEF70DFC0C490C48FEF709FC0B480B496038FEF704FC084801218838FEF7FFFB10BD70F02E40A6
:402A0000BE0F0020D8102E4090890000041E2E40FF0F000058122E40209000000849087806280BD148780749002803D1486B400840004863C86A01221043C86270470000BE
:402A4000BB0F002040F02E400148007870470000BB0F002000B50300FFF7B2F8080D050D0B070507090D012000BD032000BD042000BD022000BDFF2000BD0000074A916815
:402A8000D26889B2064B92B2994204D105498A4201D1012100E000210170704780002E4033D000003FE3000010B50446FEF74CFC072C01D9FF2C01D102480470FEF740FCCD
:402AC00010BD0000BB0F00200149487070470000B80F002010B5064A012805D01921C9021046FEF789FB10BD1D21C902F8E7000090002E4010B50A4A141D012808D0094948
:402B00001046FEF779FB08492046FEF775FB10BD04491046891CFEF76FFB0349491DF3E788002E4031D000003AE3000070B50C460546FEF721FCC0B202280E49287804D06B
:402B4000FF2810D04C280CD810E0FF2809D10A4AD0680004800F032801D0087807E09069000A553803E00878207070BD4F382070087070BDBA0F002000002E40F0B50122F8
:402B8000002834D0002932D00424420600D00524792342065B06D21800D0641C034600221EE00C2516466E43124D00277519AF72104F002ABB51696007D0661EB24209D173
:402BC0000D4E86197606760E05E05E06760E8027BE1B00E080269B198919521C2E81D2B2A242DED303480549006B002288611046F0BD00006816002079020000C40F00205E
:402C000018B50020694608700A48006900280ED0132149014018047E684604704F21C900054800F059F8A04201D0012018BD002018BD0000C40F0020EC130020074900205E
:402C40000C2242435218927A012A05D0401CC0B20628F5D3002070470120704768160020F8B50E000446154609D0194F19497868A04202D94018A04201D38D4201D90120A2
:402C8000F8BD31462046FEF77DFD00281ED02A4631462046FEF785FDE8B200210C224A43D21913895568EE18A6420BD90126641B1B1B9672834209DA1469C01A044AC0B20A
:402CC00020329676491CC9B20629E7D30020F8BD6816002079020000034610B50020024604E09C5C2018521CC0B292B28A42F8D310BD000070B500F05FF8084C064A216913
:402D000007480D46FEF74DFD05492846FFF736FFFFF776FF207070BD79020000C40F0020EC130020002070470020054A002902D0012902D002E0906000E0D0600020704720
:402D4000C40F002070B5084C154608460549E26889182A46FEF725FDE0684019E06028B270BD0000EC130020C40F00203EB50A226946FFF7E7FF044606480A2200686946FF
:402D8000FEF700FD002802D00020C0433EBD20463EBD0000C80F0020002802D0044A914201D2FF20704703494A6108610020704779020000C40F0020024800218160C160DB
:402DC00070470000C40F002070B5074C15460548A26880182A46FFF743FFA0684019A06028B270BDEC130020C40F002010B503490A220968FFF7E8FF10BD0000C80F0020F6
:402E000010B50F4A002313600E4A13600E4B18600E4801600E49012008600E490860000290600E490C4808600D4914300860FF381538506000F0BCF800F0CAF9002010BD6D
:402E4000F80F0020E00F00200C10002010100020FC0F0020EC0F0020B0170020F00F002004100020014610B50020002910D0094B1A689C685118A14209D258681960801819
:402E80008A0704D08A07920F891A091D196010BD002010BDE00F0020F8B50024164E671E321F3D463168136806E01422624310328A58521C1BD0641C9C42F6D36A1C14D0FF
:402EC0002C461422544322460C3288500C214843FFF7C8FF3168002808510AD031680020103408517068401C70602846F8BD2546E4E73846F8BD0000F00F0020F3B50026D9
:402F0000F64381B000281BDB1E490968884217D80299002914D01B4F142204463F1D54432546396810354859401C09D0FEF70CFA38682F1F4159C359994203DBFEF700FA85
:402F40003046FEBD214608310091465801590C20704308180C220299FEF723FC0948761C001D0068C159B14200D100260549009A091D865008684159491C4151FEF7E0F9FC
:402F80000020FEBDEC0F0020002803DB07490968884202D90020C043704704491422091D096850431030085870470000EC0F0020F0B500200D4A451E0346171F50600FE019
:402FC00014260146714314680E1DA3510C461668083433511668083435511468401C635039688842ECD30020F0BD0000F00F0020F3B50026F64381B0002841DB2349096837
:4030000088423DD8029900293AD0204F142204463F1D54432546396810354859401C2FD0FEF792F93868415900292BD0211D009146580C21005971430F46C1190C22029838
:40304000FEF7AFFB11480021001D0068761C00590C34C0190160416081600C48001D00680159B14200D100260849009A091D865008684159491E4151FEF762F90020FEBD99
:403080003046FEBDFEF75CF9FAE70000EC0F0020FEB504460D4600201E49089E0860471E009001900290002C11D0486885420ED2002A0CD0002E0AD0642E08D808460C302E
:4030C00001681C2068430C18207A002801D03846FEBD0120226020721846FFF7DDFE6060401C13D06681A6810A4827610C3067610179A94200D205710021684601810A46F3
:403100002846029B00F040F82846FEBD00202072DDE70000F80F002038B50124009400F039F838BDFEB50027164EFF433D4600240EE01C20316860430818017A002906D0B3
:403140004068FFF721FF002801D0254603E0641C3079A042EDDA681C12D01C2130684D434419FEF7F1F869466068FFF741FF0546FEF7E6F8002DD9D1216868468847D5E70E
:40318000FEBD00000410002038B50024009400F001F838BD1FB500220C49541E0A60002811DB496888420ED808491C220C31096850430818406801A9FFF7A0FE401C02D0FD
:4031C000002004B010BD2046FBE70000F80F0020F0B50021114A4D1E174611710C3F0B46BD6016E008461C2460431668041D355114680646235014680836A3551468361D93
:40320000A353044616680A34335318301468491C255078688142E5D30020F0BD0410002038B500210091002811DB0F49097888420DDA0D4D04010C3529680859002807D044
:40324000201D0818694600F06FF9002801D0002038BDFEF779F828680F34015D491E0155FEF76EF8009838BD14100020F7B582B0002502986E1E06602E48D21C02401746CA
:403280002D4A2C4610460C380178106805E02301C358002B0FD0641CE4B28C42F7D3711C28D03401211D40180191039900F02AF900281FD101E02646F1E71F4801682046BA
:4032C0000C300F521C480399026820460E30115419480399026820460F3011540398784300F0A0F8144900280968085102D00024009011E001251AE00F4801680198081810
:40330000009900F02CF9002801D0012502E00098C0190090641CE4B203988442ECD3002D05D10298066004480179491C0171284605B0F0BDFCFF000020100020F8B50D46EC
:4033400000216A468C461180002839DB23490978884235DA214B04010C3319680A59002A2ED020460C300B5A801C0E5C184670438018954224D3854222D2002006E00746C9
:403380005F43BF18AF4206D0401CC0B2B042F6D36046002814D0114E271DC8190C366A46294600F006F900280AD168460088012808D030682946C01900F0D1F8002803D0F0
:4033C0000120F8BD0020F8BDFDF7BEFF30680F34015D491C0155FDF7B3FFF3E714100020F8B50F46002400F031F8002817D10C4900220B460C334A600EE021011D680E46D0
:403400006A501D680C36AA53B61C1D680F31AA551D68641C6A54E4B2BC42EED31A71F8BD1410002000280BD0C01C074A81085068890053884118994203D89368516018181C
:40344000704700207047000014100020F8B5064600200F4D009029700C0121466846FEF74DFC00280CD129460C3100980860301B001F84B221466846FEF740FC002801D0EC
:40348000FF20F8BD6C800098A8600020F8BD000014100020F8B5002827DB19490978884223DA174C05010C342168485900281CD028460C30085A009028460E300E5C401C1D
:4034C0000E5420682F1DC01900F064F800280CD12068002445590EE0094829460C300068C01900F03CF8002801D00120F8BD00982D18641CE4B2B442EED30020F8BD000085
:403500001410002030B50D4604000BD0A800FFF789FF6060002805D000202570C0436080002030BD012030BD70B50D46040005D0002D03D00220205E002801DA012070BD58
:40354000FDF702FF0221615E60688900405828606088401E6080FDF7F3FE002070BD70B50D46040007D0002D05D002212078615E401E814201DB012070BDFDF7E5FE6088D2
:40358000401C00B26080616880000D50FDF7D8FE002070BD10B5040009D0227800216068FEF708F90020C0436080002010BD012010BDF0B500231D46002802D00224045FB9
:4035C0000AE00120F0BD46689F00F6598E4201D1012503E05B1CDBB29C42F4DA15700020F0BD00000148007870470000281000207CB505460024FEF71BF9A8796946087009
:4036000000A8062229460130FEF7CBF80021684606F058F90C2806D0072806D01F2806D0122806D006E0022404E0042402E0272400E0012420467CBD014801214172704752
:40364000E818002010B500F0A1F9FFF7FDF9FFF701FA10BD70B504460025FEF7E9F8002C06D0A079012803D8214602F015FD00E00125284670BD01460120002902D05020C9
:40368000088000207047000001460120002903D00248007808700020704700002A10002001460120002905D0034854220078504308800020704700002A10002010B50246E4
:4036C0000D49FE204870032410460EF05DFD002810D10EF001FD00280CD107F0C3F8002808D100F049FB002804D106F091FB002800D10024204610BD2810002070B5002567
:40370000044600280ED0A07901280BD8FEF790F8A0790028204602D003F0D2F803E003F0A7F800E00125284670BD0000014610B50120002904D006220248FEF732F8002070
:4037400010BD00003410002001460120002903D00878024908700020704700002A100020F0B589B015460F4606460124FEF760F8002E20D0002F1ED0002D1CD010223946EF
:403780006846FEF70EF81022314604A8FEF709F8102168460EF01AFC102104A80EF016FC2B46102204A9684604F04EF9102128460EF00CFC0024204609B0F0BD10B505F0AD
:4037C000FDFF04F03BFA06F095FE10BD0148007A70470000E818002038B504460120002C20D0617801291DD800290BD0FF25E535FEF71EF80C4828180088C0B220700728AE
:4038000003D00EE0FF25CD35F2E70020694608706846FFF733F969460878012801D108202070002038BD000000102E40014A0021926810472810002008B500226B461A700D
:4038400026280CD0094A342852680BD0352805D1900703D50021352007F0E0F808BD19462620F9E7D007F9D03420F5E7281000200149087270470000E8180020F8B50446EF
:403880000120002C26D06178012902D92278092A20D8002905D0FF25E5352078092803D004E0FF25CD35F8E708202070FDF7C0FF2078114F114E08280DD00020FFF71AF969
:4038C00070780128207810D00D4969180880FE2070700020F8BD0120FFF70CF90720B8810549203188800120F2E7B8810248217820308180EBE70000C0112E40281000201A
:4039000000102E4070B50E46050001D0002400E00C4C002C11D0E28A500609D5D107C90F022003F0C9F8E08A40218843E08204E0D107C90F012003F0BFF83146284602F0FD
:403940002FFD70BD48180020F8B50546002004460D4E009013E022466946284600F0D6FF0098002801D00EF0F1FBA878214602F0D1FAA878214602F0BFFA641CE4B2308A23
:40398000A042E8D8F8BD00001419002038B51E4CFFF75AF8042813D0052811D0062812D003282AD007280AD100206946087002460120FEF76BFFFFF747F80128FBD138BD3A
:4039C00000F077FB38BD02F01BFB00F072FB02F097FB8007800F0228F4D10C4841880029F0D05B21095D0029ECD101210170A07D0140022003F060F838BD02F005FB01204E
:403A0000FFF752F838BD0000481800204E100020F8B50646002403F0CDF80546304603F0E3F803460A480021068A0DE001228A401046174628401F40002803D0002F01D153
:403A4000224394B2491CC9B28E42EFD82046F8BD141900201CB50020694648706846FFF7BBFE01AA69460A20FEF710FF6946042008561CBD70B50D4601F028FB04000BD00A
:403A80002079002808D0FDF7D3FEE178A0782A4602F00CFD002070BD022070BD0148007870470000201800204030C07E002800D00120704700B500F001F800BD902148434B
:403AC0000749084A40186030417F491CC9B24177D289914201D300214177C8B270470000281800201419002013B501F0EFFA04000BD001F08CFE002807D0214601AA0A31E3
:403B00000620FEF7C3FE00201CBD02201CBD000010B50C4601F0DAFA00280AD001F077FE002806D0224604490A20FEF7AFFE002010BD022010BD000009180020F3B581B0FC
:403B4000074601460026029803F02CF80446002F01D0002500E0154D002D21D0284601F0EBFA032C04D13946029803F077F806463846029902F0C0F9032C06D0002C10D027
:403B80000121384601F0DEFB03E03146384603F063FA284602F06CF80221284602F082F8FEBD3846029902F0A7F9FEBD4818002010B5044600F066FA002804D103F016FFAD
:403BC000002801D00C2010BD2078611C02F080FDFF2801D01F2010BD02F0C6FDFF280AD02178621C02F016F9044821780068026B601C904710BD072010BD0000741000200B
:403C000010B503F0F3FE002801D00C2010BD02F041FD03480068C06A8047002010BD00007410002070B50D46044610210EF0CEF91021601806460EF0C9F93346102219460D
:403C4000204603F001FF102130460EF0BFF902202870204606F012F870BD0000F8B504464078217802028006870FE0781143A67809050002090D0643084601F027FA00211F
:403C80000546F2B2002812D0002C10D0022F0ED0032F0CD0002A0AD00279092A07D0002A05D0134A5A23527E1B5C9A4207D82889002105F018FF20460EF048FAFF210029B1
:403CC00014D10C48224600682946436930469847C0B2FF280AD128464030817EF2B2491C8176FF232146284600F0E3F8F8BD0000E0170020901000200020704710B50446C6
:403D000003F074FE002801D00C2010BD2078611C02F0DEFCFF2808D002F016FC044821780068426B601C904710BD1F2010BD00007410002010B500F06BF906F069F80020EE
:403D400010BD10B5044600786178E2780843A17811430843217908436179084305D003F037FE002803D00C2010BD122010BD204602F0A6FD002010BD10B5FDF7FDFA02F035
:403D80003BFF044803F09EFE02F0E8FB012000F003F810BDF0170020F1B586B003A8009005A8019028489F22817A114081726846FDF758FD002845D169460989C90705D039
:403DC000224806990068C2686846904769460989890706D5002835D11D480068816A0698884700282ED11B4E0025757075737571F575357675767575B570F570B571374625
:403E0000F5730120D03738731F20F880FF2130467972A0300176457600F0D0FA00242046069901F09FFC002803D1641C2406240EF5D0FD720749BD72B573C0310D704D70C0
:403E40004D600D7207B0F0BDE017002090100020741000202818002070B505460E46084602F0A8FE0446304602F0BEFE0121A9400A46224001400A4301D0012070BD002035
:403E800070BD10B50446084602F0AEFE0121A140014201D0012010BD002010BD10B5FEF7D3FD032804D102F0AFF80120FEF7FCFD10BDFEB51C4616460F46054601F0D8FE11
:403EC000A878FFF7F7FD02460190334639460094284600F00DF8002808D1A8780199FFF711FDFF2C02D138460EF030F9FEBD0000FFB585B005460E980C46FF2810D02B492C
:403F0000C00009680A5840180179C0795278814201D9012601E09006860F6846038108E06078A1788006860FE0780002014368460181284601F076FC070007D021462846D1
:403F4000079A00F077FC384609B0F0BD304600F025FD04AE0346039002AA29460096204600F0B1FB3C20405D002818D0284601F059FC012813D0684600890096C0B20190F7
:403F8000A878231DFF22079902F0BEF968460089039BC2B2A878079902F060FDD3E7684600890021C0B20091E9E700008C100020F8B5002600253046FFF72AFD07001DD0BF
:403FC00090201149704340186030447F12E0601CFDF7B0FACCB23846E040C007C00F07D02146304601F080FF21463046FFF7A6FD6D1CEDB20548018AA942E8D8761C360688
:40400000360ED7D0F8BD0000281800201419002010B502F0A3FA0020FFF7BEFE0EF02CF9002010BDF8B5002400F0B2F80123012800D10124104F00203E46203604250822A3
:4040400003E0002801D0002100E031460979002907D001290BD002290BD0114681402143CCB2401C0006000EEBD07C70F8BD1C43F7E72C43F5E700002818002010B5FFF7F6
:40408000D1FF10BD10B5044606F01FF8002802D1601C00F001F810BD1CB500240094062269460194FDF76EFB002800D1122420461CBD10B5FDF789F80446FEF7C5FC0128F7
:4040C00009D0FEF7C1FC022805D0FDF785F82046FDF77FF8EEE72046FDF77BF810BD10B50B4681791943817103D08078114602F051FC10BD10B582798A43827102D18078AE
:4041000002F05CFC10BD000030B50C4C0220A28A0B4B9978002901D0022906D11D785B78EB18282B01D9032002E0032900D101205105490DC0020143A18230BDC0112E40BE
:404140004410002000B500F029F8002807D0012805D0032801D0042801D0002000BD012000BD014600B50020C90701D000F010F800BD014600B50020C90701D000F008F835
:4041800000BD000001480068704700003C10002001480088000A704720102E400448008B410501D5042070474007800F7047000000102E4010B501F069FF044601F0A6FF67
:4041C0000146204601F08AFF10BD000001484068704700003C10002038B50446000610D5FFF7DCFF01280CD1684601F01DFF6846007800F023FB012001F0A2FD0220FFF706
:404200003DFF600708D507480179012904D1002101712620FFF710FB0348006801692046884738BD481000207410002070B505460C49007800240870FFF7AAFF012803D184
:40424000FFF7B8FF022803D3284602F0A5FA07E0284600F0EBF8040002D1034801210170204670BD44100020E818002070B50446FFF78EFF002801D00C2070BDA27B01210B
:404280001F48002A827801D00A4301E05208520082706279012A14D0C17849084900C170184D2868016820468847207901280CD06188208803F04CF92080207904280FD0AA
:4042C00015E0C2780A43C270EAE72868C168E01D8847E01D02F0E0FA0B48808C208006E02868C168E01D8847E01D02F0D5FA074920798870204602F05DFA002070BD0000EC
:404300002818002074100020E01700204410002008B50178FFF73CFF814201D10C2008BD002914D0072069460870FFF70BFF012807D10121684600F0D9F8012801D00920F1
:4043400008BDFFF7E1FE02F069FA012011E0FFF7F9FE012806D1684601F066FE6846007800F0A0FA02F050FAFFF712FF0028FBD10220FFF783FE002008BD000070B5054677
:404380000C49007800244870FFF702FF012803D1FFF710FF022803D3284602F0DBFA07E0284600F05DF8040002D1034801214170204670BD44100020E818002038B56846D5
:4043C0000DF05AFE002801D01F2038BD01210098C90201804180002505714571857107214173857302F0E6F9009C202200212046FDF7E0F925702A460021601CFDF7DAF9ED
:40440000204602F0C9F9204602F0A4FA00980DF09DFE062200210448FDF7CCF902480C388560002038BD000048100020F8B504460025684600950DF01FFE002801D0072550
:404440000AE0064E009830602278611C401CFDF7A8F93168207808702846F8BD3C100020F8B504460025684600950DF005FE002801D007250AE0064E009870602278611C55
:40448000401CFDF78EF97168207808702846F8BD3C1000200346084800B5834209D8184600F014FE002804D00089984201D1012000BD002000BD0000FF0E0000074A917905
:4044C000491C8906890E917138220A4092014907090E1143084302490840704728180020FF0E0000C006C00E70470000F8B507460E4600240D4803E0002C01D0002500E044
:4045000005462979002905D0641C2406240EF3D00020F8BD0021204601F024F92E712046FFF7CCFF28813C700120F8BD4818002010B503F0BDFA0222002100F003F801F086
:40454000A9FF10BD10B5094B40074907000F090F185A595A40185043C0086421FCF7EAFF002800D1012080B210BD000044D20100F7B53D20405C88B015460C46002802D002
:404580002878042802D200200BB0F0BD6946087200262046FFF788FA012800D00126204603A938300191009023460327A17E34333246206A03F0A0FA02A8089900900B4616
:4045C000019120463A4603A9243003F01DFA02466846007A2870204601F0B0F81046D3E7FFB587B00C4605461078694608723D20005D1746002826D000262046FFF754FAE4
:40460000012800D00126204603A93830019100902346A17E34333246206A03F06DFA02A80090291D019120462B1D03A924300A9A03F0EAF902006846007A388002D120461E
:4046400001F07CF810460BB0F0BDF0B505463C20405C89B016460C4600280CD0307869460873002806D000272046FFF71DFA012803D003E01F2009B0F0BD01270320089073
:40468000204604A93830019100902346E17E34333A46E06903F030FA6846007B03A928180290009120462B46019504A92430089A03F0DEF902466846007B3070204601F0CE
:4046C00047F81046D7E7FFB505463C20405C89B016460C46002810D0084601F0A3F801280BD0308869468883002809D000272046FFF7DAF9012805D005E000200DB0F0BD6D
:404700000220FBE70127204603A93830019100902346E17E34333A46E06903F0EDF9291D2B1D07A8129A6D4607C5204603A924300C9A03F09DF902466846808B30802046CC
:4047400001F006F81046D9E770B50D460446FFF7ABF901280AD0E87AA97A00020143A07801F094FD012808D0002070BD00222421204602F03FFE242070BD28214C200155AA
:40478000204600F0B1FB282070BD0000002801D0002000E003484030C07F012800D0002070470000481800200146002049070ED50021084B03E0002901D0002200E01A46F2
:4047C0001279022A04D0491C0906090EF3D0704701207047481800200146002049070ED50021084B03E0002901D0002200E01A461279022A04D0491C0906090EF3D07047F4
:40480000012070474818002010B5044680346068002803D00DF0AEFC0020606010BD4030417070474030817070474030017070470171704792001018C166704770B53C2577
:4048400001F096F9040004D020460021433001F073FCFF222946204600F0E2FB002C02D0A07801F007F970BD10B5002801D0002000E00348002802D0008905F07BF910BDCD
:404880004818002010B5002801D0002000E00448002804D00179072901D100F047F810BD4818002010B501F063F9002802D0807801F0E0F810BD00207047000070B5054699
:4048C000008A00281ED01049F122897A1140C90618D5294640314A8A098A521C4A4392B2D10800D10121540801E0621A94B2A042FBD9FEF777FE012804D1298AA8782246F2
:4049000001F08AFD70BD0000E017002010B50023054C0B60248A944204D992001018C26E0A60C36610BD00001419002038B5044600200090A079002814D14020015D052926
:4049400001D00E290ED168460DF0A6FB002809D12046009902F02CFD03481021C28A2046FFF7BDFB38BD0000E017002010B50B4604460146184602F0A5F9002802D020460B
:404980000DF0EEFB10BD13B5044601AA11460620FDF77CFF6846818861811CBD002800D10220704770470000F8B504462346401D543300909A1EA078911E01F051FB2546A5
:4049C0004035A88A298A8000FCF7B4FD401E81B2688A884203D96982A07802F0B7F8698A8C20015120460021433001F0A5FB27480088E88103F05CF8E989891C8AB261791C
:404A0000FFF7A0FD01F046FD03F052F82A8A6179FFF798FD074601F031FD688A002806D01B49088A032212021043088202E0002002F080F81648803801886E8A002E0CD0E4
:404A4000304648431349FCF765FE0004000C01D0401C80B21049488002E00F4800214180288A704381B2A07801F082FFFF2228374932B9B21346204602F06EFDE98AA078A9
:404A800001F0D6FEA07801F069FAF8BD80102E40E0112E40710200004E1000207FB504468034616805460E46183108226846FCF778FE31462031082202A8FCF772FE10216E
:404AC00068460DF083FA6068102108300DF07EFA60682B46083024331022694602F0B4FF7FBD10B504460821FFF704FB10212046FFF700FB207905281FD006281DD00828A9
:404B00001AD12189002004F0ADFF072020712046FEF7CAFF014620464030012913D00E21017000210176204600F0B6FF2046FFF76BFE2046FFF7C2FE10BD2089012200213C
:404B400004F074FFE1E70521EAE70000FFB581B01F4604460821FFF7CDFA10212046FFF7C9FA2079082803D0092804D0042203E00422012501E009220025204600F03EFE8C
:404B8000264600204036307022712046FFF73CFE0398002D02D0012808D00BE001280AD120890022029904F041FF04E02189029804F058FF012700203076012F04D020463B
:404BC00000F06AFF05B0F0BD02983073204602F03DFC054605480121C28A2046FFF77FFA002DEFD109202071ECE70000E017002070B50C460546FEF757FF012809D1082187
:404C00002846FFF777FA0023012221462846FFF79DFF70BD10B5044600F0F0FD2046FFF7F3FD00214034217010BD70B505461A24FEF73AFF012809D108212846FFF75AFADA
:404C40000023012221462846FFF780FF70BD0000F8B50446002000900E4668460DF01CFA002801D00D20F8BD8420005908212030009D00F026FA20460421383000F021FABF
:404C8000002E02D1204600F0F5FD2946204602F01EFB0E480821C28A2046FFF720FA204600F06BFF25464035002808D0204600F023F8002801D0092028700020F8BD0820C2
:404CC0002870204600F0D4FFF7E70000E0170020014610B540310A460978082906D0092907D00A2901D100F091F810BD0B20107010BD00F001F810BD70B5044600792546D4
:404D00004035052805D0062803D008280FD00C2070BD03220621204602F06CFB0D480821C28A2046FFF7DBF91120287010E006202873204602F08AFB0646AA8A0A20424308
:404D400001212046FFF7CBF9002E01D109202071002070BDE017002038B504460020009068460DF099F9002801D00D2038BD2046009D00F0BDF908202071204600F07AFD65
:404D80002946204602F0D6FA00213D2001550F2040210855204600F06BFF002038BD00B5024600F02BFD10214032117000BD10B50446FEF779FE012809D04020005D11285D
:404DC00005D100231A4606212046FFF7BFFE10BD10B5FFF786FE10BD38B504460021684600910DF059F900280CD12046009902F022FB05480821C28A2046FFF770F90D2094
:404E00004034207038BD0000E017002038B504460021684600910DF03FF9002801D00D2038BD2046009902F0FBFA05480821C28A2046FFF754F90C2040342070002038BDE5
:404E4000E017002000787047F8B5002569460D70002801D0002400E01F4C002C18D0204600F0D5FC002813D0207903280BD005280CD026464036B18AA07801F083FDB078CA
:404E8000012806D01DE0042020711DE006202071F8BD0021204601F032FF274680373868002802D00DF066F93D600020B0702079072802D12046FFF701FD0221204600F0CA
:404EC000F1FE20790428E3D1207A694608703420FEF7B2FCF8BD00004818002010B54C22115400F04CF810BD10B50446FF21FFF701F909202071A07801F06AFD10BD0000AE
:404F000038B5FF216A461180002801D0002400E0084C002C0DD011460620FDF7B7FC684601882046FFF72FFD03480068C1692046884738BD481800209010002010B5044690
:404F40008079002809D022214C200155FF212046FFF7D0F8204600F012F810BD10B5037902464032002B03D01173092B02D003E0002100E02221117300F001F810BDFEB52A
:404F800004460089002700902781207926464036002817D0012815D002280AD112E002AA01A9204601F07CFE002807D101980DF0D7F8204601F09CFE0028F0D02046FEF770
:404FC000C3FCB776254680352868002802D00DF0D1F82F606868002802D00DF0CBF86F60317B002919D0009800F064F8A078002100F0D0FF2046FFF79BFAA07801F030F9B0
:40500000A07800F037FDFF212046FFF773F80B20FFF734F800F068FCFEBD1F213173E2E7F8B517460E46054602F03EFD04003CD020460C3001F070F820460622002118306C
:40504000FCF7B8FB2046062200211230FCF7B2FB1648224600683946436A28469847074626702846FEF720FD012148406070002D10D02889608028464030C1782171002E00
:405080000FD169796171018AE180418A2181808A608106E00648008BC005C00F2071002060803946204604F060FCF8BD7410002000102E400A4610B50146002004F072FD49
:4050C00010BD10B50CF05EFD10BD000000B50146FFF708FA002801D0002000E00348002802D002898A4200D0002000BD4818002038B5044680346068002806D168460CF0E8
:40510000DBFF002801D100986060606838BD000010B5014600F086FB0128887802D0FEF7CDFC10BD90214843024940186030007F10BD00002818002070B505460446403539
:40514000A87F012811D1A1789020084A484380186030067F3046FEF77FFE002805D10220A877A078314601F025F970BD2818002010B50C4CA07A002813D0FEF719FF0A48B7
:40518000027F417F408B00F0B7FB012809D10020A07200F05FFF05498989090B01D000F03BFA10BDF818002028180020A0102E4070477047490510B5490F0B00FCF700FD05
:4051C000060704080C0C0F073E21FFF787FE10BD0821FFF7C3FE10BDFFF7D1FE10BDFFF7ADFE10BDF8B507460025002D01D0002600E0204E00F0F2FE3046403044890021CF
:40520000418100F0F5FE304600F001FB01282BD1A00702D52846FFF717FEE00602D52846FFF76EFEA00601D5FEF7C2FE600601D500F014FB200602D5284600F01DF860077B
:4052400002D5284600F02CFA380402D52846FFF719FB780402D52846FFF706FBE00703D021463046FFF7A6FF6D1C2D062D0EBCD0F8BD000048180020F8B5002801D00024DC
:4052800000E0284C002C4BD025464035A878012846D1FF278820493700593E46002805D02149897A890601D5878AC68A2046FEF7FBFB012834D002F0FBFB2A8A6179FFF7CE
:4052C00041F9009001F0DAF800983346283081B23A46204602F040F9E98AA07801F0A8FA12480188688A124E002810D048431149FCF710FA0004000C01D0401C80B27080D8
:40530000A07DC107C90F002001F0D6FB01E000207080288A698A484381B2A07801F028FBF8BD000048180020E017002060112E404E100020710200000149096809680847B7
:405340009010002070B50D460026194A0146002801D0002401E014462034002C26D0204600F060FA01280AD19020484380186030007FFEF771FD002801D101F0E7FF0D4838
:40538000006881692046884700280CD020464030817EA94202D3491B817600E086762089294604F0A0FB204600F062FC70BD0000281800209010002070B503460088FFF702
:4053C00085FE040013D000F022FA00280FD02079092819D02546997840352973204602F035F80646A878012803D0AA8A02E0022070BDEA880A20424301212046FEF76FFE93
:40540000002E01D109202071002070BD0EB5002217216B460292198100905A810120029B00990CF047FF0EBDF8B518480024807A002822D1164E0025B089000B22E020461F
:4054400000F0E8FE1249A039401807882A462146384600F051FA012810D00E480122478305770A4944778A72002D01D0002000E02030002801D000F0FBFBF8BDB089000BB3
:40548000641CE4B20028DAD1F8BD0000F8180020A0102E402818002010B50088FFF716FE002809D0014640310C460978082905D00B2903D00C2010BD022010BDFFF71CFCBA
:4054C000002801D009202070002010BD70B503460088FFF7FBFD040008D0254640352878082805D00B2803D00C2070BD022070BD8420005910220830991CFCF752F920465A
:40550000FFF7CCFA2878082804D02046FFF77EFC002801D00A202870204600F0A9FB002070BD000010B50C46002121700088FFF7CDFD03000BD000F06AF9002807D00948A1
:40554000F121807A0840C00603D4112010BD022010BD022020701A8A1889002104F03EFB002010BDE0170020F8B50F46002100910088FFF7ABFD040012D000F048F90028EB
:405580000ED0E079410641D4617E02264A07002A08DB8907402500291ADA2843E07135E00220F8BD02F080FA0021017021894180A1898180217E4170E189C1803E700546B1
:4055C0000178134803F0C0FF284604F0ABFA1DE0204600F02DF9012806D068460CF05CFD002803D00720F8BD2A20F8BDE07900992843E071204601F053FF607E0421304300
:4056000060760448C28A2046FEF769FD0020F8BD1D040000E01700203EB500220F236C460292238100910190628169460EC900200CF040FE3EBD0000F8B50F46054600F0E0
:4056400097FA040025D003202071254600264035EE76E6702046FFF7A7F901F0D5F80920FEF70CFDA07800F0E9FD0121204600F019FB2E706E70AE703A4600212046FFF73A
:40568000CFFC0649887B401C8873A078FFF754FEF8BD284601F09CF9F8BD00002818002010B5002801D0002000E0094800280DD0014640310A464978022901D1002151709C
:4056C000807DC107C90F002001F0F6F910BD00004818002070B503460D460088FFF7F6FC04000BD000F093F8002807D01248F121807A0840C00603D4112070BD022070BD3E
:4057000020464030418A008A491C41430804C10C5888884201D2122070BD20822079072802D12046FFF7CAF8022028702089002104F07CFA002070BDE0170020016A491C23
:40574000016204D1817E491C4906490E81767047C169491CC16104D1C17E491C4906490EC1767047F0B5074687B003A8009005A800260D460190002F01D0002400E01B4CF5
:40578000002C05D06846FCF76DF8002803D00BE0022007B0F0BD68460089C00704D1902200212046FCF706F8114829460068826820469047050016D1A7706676274626713F
:4057C00040373E70204600F019F8204601F08CFA084820820848BE77807AF121084000D001202075E682E8B2D3E700004818002090100020B80B0000E01700200021016295
:405800008176C161C17620300177417770470079002805D0012803D0022801D001207047002070474030807F002800D00120704740300078002807D0012805D0052803D0A1
:405840000E2801D0012070470020704710B5807801F0CAF9002800D0012010BD10B500F0F9FB03498989090B01D0FFF7D5FE10BDA0102E4070B5054604464035A87F0028FD
:4058800025D1FF206075A0789021154A484380186030417F9023491CC9B24177A0785843104B8018DB896030994201D300214177A0789021484380186030467F0677A1781F
:4058C0003046FEF7C9FA002802D00120A87770BD0220A877A078314600F06CFD70BD000028180020141900200020401C0006000EFBD0002070470000F0B515468207920FB4
:4059000085B0000A02926A469080002D01D0002400E0564C002C28D0084600F07BFC07466846808800280BD00298012843D0022841D003280BD03D20005D012879D08FE09F
:405940004B48381801882046FFF71DF888E00020029002A80CF080FB002807D03D20005D012802D12046FFF7E9FE7CE06846029E8388324600213846FCF79AFE3C483818EC
:4059800001882046FEF7FFFF284600F0F3FA01AA21463046FEF7ECFD002806D030460CF0CBFB3D204C21085531E0F5773146204601F002FB57E000200090208903906846DE
:4059C0000CF03AFB002802D0002005B0F0BD6846009E8388321D00213846FCF769FE2448381801882046FEF7CEFF284600F0C2FA2046FFF70CFF002805D025464035287EEA
:405A0000002810D107E030460CF08CFB2BE02046FFF76AFA27E001AA21463046029BFEF7DFFD002806D030460CF07CFB3D202873EDE712E00298FEF7B5FF039931700399F4
:405A40000001090A0143717068468088B070000AF0703046FFF7DAFC05E02046FFF76EFE284600F087FA0120AFE700004818002000102E4010B5074A917B002901D0491EA7
:405A800091730021FFF76EFE002801D0002010BD012010BD28180020F8B5074606464037B87F00282DD0B078902100904843234945186035287F0099FEF7E3F901281ED098
:405AC000287F401CC4B21E48C089A04200D800240020B877FF276F772F77A87702460146009800F0E3FD717DFF2903D0304601F0BCF8777501F02AFC0025114F19E00320E1
:405B0000B877F8BD00200090224669463046FEF7FDFE0099002904D0FF231A463046FEF7C8F9641CF889E4B2A04200D800246D1CEDB2F889A842E5D8F8BD00002818002036
:405B40001419002010B502460021084B03E0002901D0002000E018460479944204D0491C0906090EF3D0002010BD00004818002000B50120FFF7E6FF00BD10B5044601F0CC
:405B800093FF2189018080346168416061682831816003F081FF10BDF7B50646087982B00C46092807D0A078F0770846FFF73AFE012806D010E030460CF0D2FA022005B0C3
:405BC000F0BDA1789020294A484380186030007FFEF742F9012810D0A078FEF7D7FD01280BD037780121304601F05CFB25462035062F38D00B2F0FD107E06846027C21464C
:405C00003046FEF7B3FE0D20D9E72046FDF74CFF012801D1002028772046FFF779FA054604AA21463046FEF710FD01205F2108556946097C002001910090A07833463A46D0
:405C4000294600F061FB69460A7CA0780323294600F004FFA0782946FDF754FE30460CF07FFA0020ABE70120D5E700002818002010B502464032937F0021002B03D1927E2C
:405C8000002A00D00121064A927A002A00D000210279092A00D10121807800F02DFF10BDF818002070B50C460546FDF7FDFE00280BD1012C06D92879092806D02846FFF7D2
:405CC000C5FD0446002C02D004E0012402E0A87DC007FAD1A87DC107C90F204600F0ECFE70BD0000012807D0082804D104480282034808300180704701488038FAE7000054
:405D0000A0102E40014908817047000000102E4010B50446FF20F130012C01D1FF20D530002200F02BFF044A108A044980B2A0430880108210BD000000102E40521000205E
:405D4000034B198A034A89B2814311801982704700102E405210002010B50446012802D0082C07D102E0FF20D53001E0FF20F13000F0FCFE0348018A034A89B22143118089
:405D8000018210BD00102E4052100020034B198A034A89B2014311801982704700102E405210002070B5054604462035A87FF122800012018018164A861830884008400041
:405DC0003080002906D10121AB7FFF220903601D00F012FE89212046AB7F80224901113000F00AFE83212046AB7F202249010B3000F002FE43212046AB7F4022890117308C
:405E000000F0FAFD208801210843308070BD000000102E40F8B505460120A84086B214460F46012231467C2000F0A8FE3A463146782000F0A3FE6078267800020643E0781E
:405E4000A2780002024360792379000203430C2045430D2080010549281844182680001D44182280001D40180380F8BD00102E40CB065B0E0343480901021943D001084380
:405E80000121C902084301490881704780142E404278037812021343084A1382C37880781B021843908248780B78000203431383C8788978000201439183704700142E40E6
:405EC000024A1080000C90801181704700142E40044A002180180288491C89B21029FAD37047000000102E40024A10820148803081817047A0102E4010B5054A10820846D1
:405F000000F060FE024A0021A03A8018018010BDA0102E4010B50B46044600F017F819462046FFF7E1FF10BD002310B5F121064A090118468C182380091D401CC0B289B2D9
:405F40000828F7D310BD000000102E40024A10820148803001817047A0102E4010B504490882FF20002220211D3000F007FE10BDA0102E40000202494D300880704700005A
:405F800000102E400249888A0422904388827047C0112E4010B5084B074C0202A03B0029208202D075321A8010BD04490020088088807632F7E70000A0102E40201A2E40CF
:405FC000054B198807229202002801D0114300E09143198070470000001F2E4000B5034908884880FFF7ACFE00BD00005210002000B502484088FFF7C9FE00BD521000201A
:4060000010B5FCF70BFD10BD014952200880704700102E40884201D8081A03E00022D243101A401880B2704700210170704700000748808806492039098B884201D8081A6F
:4060400003E00022D243101A401880B27047000020112E400148008AC0B27047A0102E4070B5084C049D2082074804890548603006880E8001891180808818806007400FE0
:40608000287070BDA0102E40E0112E400148008970470000C0102E4000280FD00D4A108B0870000A4870908B8870000AC8700948203000880871000A48717047064A10884B
:4060C0000870000A487090888870000AC8701089F0E7000040102E40C0112E4000B5024A00F004F800BD0000FF7F000000B51346FFF790FF984201D8022800D2002000BD60
:406100000148008A70470000001A2E40014880887047000020102E40064B1A8999891B8A0270120A42708170090AC1700371190A4171704760102E40012904D00549098BB9
:40614000C90B017070470349403109898907C90FF7E7000000102E40FFB5044601230025FF202649DB03264E89B0002C05D0022C03D0032C30D0062C24D1358BAC042F07B2
:40618000A40E3F0F012F21D0252C21D806230021F820FCF78DFA062C13D3A01F83B26A460021F820FCF784FA308BC6B21298002807D0A21F6946FBF7F4FA129800192038EB
:4061C000867600200C990D800DB0F0BD0C2C07D00A881A430A80F7E7358BAC04A40EF5E706230021F820FCF763FA06230021F8200A9AFCF75DFA308BE3E70000001F2E406F
:40620000E0102E40024800884005C00F70470000001F2E40014840897047000014190020044A10820448028980894843101880B270470000A0102E40141900209021074BF6
:40624000414300B5C918FF2260314A770A7700228A77114600F02AFA00BD00002818002090225043074A10B58018FF21603041770177002181770448418EFF201D3000F002
:4062800075FC10BD28180020E017002000B5044A1082034880308088022200F003F800BDA0102E4010B50023884201D8081A03E00024E443201A4018044980B2884201D818
:4062C000824200D90123184610BD0000FF7F000070B55478157824022543D47888232602947834435679127936023243002900D09823044908820348A03818180580848018
:40630000028170BDA0102E40FFB581B014460D4607460A9E0B9BFFF783FF002E0AD0009333460021049AFCF753FA05484019C45505B0F0BD0021049AFCF730FAF5E70000FE
:406340005610002070B502460448054D808808242C800B460021FCF721FA70BD14190020A0142E4010B5212402466401044953200880102300212046FCF710FA10BD00000D
:4063800000102E40417802780902044B0A431A83C1788078090208439883704760142E40034A1082802001430148803001817047A0102E40054A1082044A6032908B0009B5
:4063C000000108439115084390837047A0102E4030B500210F4B0A46012809D0032802D005280AD107E04021198102210A2204E004210C2201E004210D221882054C2034E5
:406400002088C0B205460D42FAD022800021198230BD000080142E4010B5044607480482074801808280032189030820FFF794FC200202497530A039088010BDA0102E401F
:40644000201A2E40054A1082044A60321183000202494B30A039088070470000A0102E40054A491E1082044A60321183000202494C30A03908807047A0102E400349884250
:4064800000D908460249088070470000FF0F000060112E400349884200D908460249888070470000FF0F000060112E408823002900D09823084908820748A03819180888E8
:4064C0001070000A507088889070000AD07008891071000A50717047A0102E4010B51446024606480B46C0880021FCF73DF9012C02D103495420088010BD0000141900204C
:4065000000102E40064A11880170090A417091888170090AC1700349542008807047000080142E4000102E403E21095CF1238A001B01D218082903D20249008851180880C0
:406540007047000000102E400121814010B589B200227C2000F012FB10BD0000FEB5FF210120FFF7D5FBFF210820FFF7D1FB3020FFF7E6FB3F48802101803F483F4D00785C
:406580004007400F02286FD001286BD100202880002211460320FCF779F9394E3949B08D8882384F002420373248A0300482308F38822046FFF754FE641C2406240EF3D0C6
:4065C000B08F38832E48103000F052F9716930690191009069464879C021084369464871684600F06DF900F055F82548214C40304188A03421838188A1831E49C088C0317E
:406600008880708E38802048002606823920FFF7BDFB184F532038801C490720088354203880E020FFF754FCE820FFF751FCF020FFF74EFC0020FDF77BFF1348868228218F
:4066400001838015A0810F48403086815B203880094800784007400F022807D0012801D10B482880FEBDFFE7032090E70848C01CF7E7000000102E4014190020001F2E40EC
:40668000E0170020C0112E40001A2E4080142E40E0230000044800218183018302497420603908807047000060102E40074B1882064B6033988B00090001084399158843AC
:4066C000002A01D11021484098837047A0102E40F3B50D2284B0920100924A780B78120213430393CA788B78120213434A790979FF20120211431A4A8C46918B9E4602913C
:40670000118B01911649742260390A80154900220F7821E00121124B9140009C603BE3181D8889B21C881B88039E6E407546654064462E435C4026430CD1029B194209D0E5
:406740000199D140CB070499DB0F8B4202D1104606B0F0BD521CD2B29742DBD8F8E7000060102E402018002030B50949FF208C8B084A00210125137805E02A468A40224215
:4067800004D0491CC9B28B42F7D830BD084630BD60102E402018002010B50446E020FFF797FB20782246401CC3B20021E020FBF79BFF10BD42790021012A02D90121417193
:4067C000090342790A430179042914D049001143827B032A01D8D2001143427B52010A43817909021143012252031143054A118300889083704711460122920211430222F7
:40680000E5E7000000102E4000B50120FFF798FA01494120088000BD00102E4000B50120FFF7B4FA01494020088000BD00102E40024A10820148603081817047A0102E40CD
:4068400010B5044C208204488180028183815143018210BDA0102E40A0132E40034B1882024820388180028070470000A0102E404178027809020A4306490A80C2788378EF
:40688000120213438B804279007912021043088170470000C0112E404178027809020A4306490A81C2788378120213438B81427900791202104308827047000060102E407F
:4068C000417802780902084B0A431A83C178827809020A439A8341790079090208430249203108807047000040102E404178027809020A4306498A80C278837812021343D0
:406900000B814279007912021043888170470000001F2E40F0B5F12600213601FF240C4D01348A00921953191A88D7070AD0520852001A80884201D1224300E0A2430127EF
:406940003A431A80491CC9B20829EAD3F0BD000000102E4010B50446E820FFF7B9FA20782246401CC3B20021E820FBF7BDFE10BD024A10820248818370470000A0102E40D2
:40698000001A2E40024A10820148603081807047A0102E4010B5044688000521FAF7CAFD04490C8204498880200202497230A039088010BDA0102E40001A2E400349088264
:4069C000000202497330A03908807047A0102E4003490882000202497030A03908807047A0102E4003490882000202497130A03908807047A0102E40F0B515460F460446DF
:406A00001E46FF2A04D000222946184600F082F86078237800020343E078A1780002014360792279000202430C207043C0190A4C80B207193B80001D80B203191980001D33
:406A400080B200190280FF2D04D001222946304600F060F8F0BD000000102E40F8B505461C4617460E46084600F0ACF8054AB90021431582034AA03A8018018002488019BB
:406A80004455F8BDA0102E405B1000203E21095CF122890012018918064A89180A88D30706D0520852000A8000880122104308807047000000102E4030B50E4C238A012595
:406AC0001A46012804D0022804D000290BD00CE02A430AE0002908D12A4322825008400020821A4601E05A0852009A4200D0228230BD0000001A2E40054A1082044A60322C
:406B0000908B4023984389010143918370470000A0102E40F12380001B01C018044BC3181888002A01D0084300E088431880704700102E40044A118A0223002801D01943D2
:406B400000E0994311827047001A2E4000B5064A1082054860300181002901D0012000E00020FFF7E7FF00BDA0102E40024A801802880A430280704700102E4070B5084BD5
:406B8000C5182C880023080003D104E040085B1C9BB2C607FAD08C439A4022432A8070BD00102E40024A1018405C8007800F70475B10002002490882014880308089704765
:406BC000A0102E408000FF3041307047044B02461B8AFF208B4202D902484018805C70471419002056100020024908820148803000897047A0102E40174902460B6800202E
:406C0000002B08D10A605207520F012A04D0022A10D0086012207047112292018A80CA80032252020A810122D2024A8140228A8105220DE0092252028A80CA800122520324
:406C40000A810322D2024A81012252028A810422CA810A8270470000141900200A4600B501461046FFF7B2FF00BD38B50C4605460021684600910BF00FFA002804D10099B8
:406C800028464C7000F0FEFB38BD10B5044680780021FFF7CDFD01212046FFF703F810BD436E002B0CD00B60014660318B781370826E4266CA788A7000218166084670473C
:406CC000FF20704710B50346446E6033002C04D0846E002C04D0FF2010BD41669A7001E08166DA70002010BD0021416681667047406E002801D000207047FF20704770B5FE
:406D00000446C0790D46810610D5DF210840E07100F0CAFE0570218941804034218A8180618AC180A18A018102F0F2FD70BD000010B50446FEF776FD01280AD1A178902095
:406D4000054A484380186030007FFDF785F8012801D000F0FBFA10BD28180020F8B50E460446FCF7A1FE01282BD02079042801D0072825D1F079B77900020743A0783946DD
:406D8000FFF784FA25464035012820D03A46711C204600F088FA02212046FDF740FDA07DC107C90F0220FFF787FE688A002807D0E87E002804D1032109020820FEF7CCFF02
:406DC000F8BD01222421204600F014FBF8BD282028732046FEF788F8F8BD70B50D460646FDF7B2FC002852D120213046FDF782F93446687840346073E87820220002E0816C
:406E0000A9780843E0816879010228790843218A814203D0F1791143F1712082E8790102A8790843618A814203D0F1791143F1716082687A0102287A0843A18AE18081423E
:406E400003D0F1791143F171A082A08A218A8000FAF770FB401E618A80B2814200D9608201213046FDF7DEFCE87AA97A000201430022304600F02EFB608A002807D0E07E2A
:406E8000002804D1032109020820FEF765FF70BDF8B50C4605460027FCF706FE012847D0284EB07AC00709D02846403000900078002806D0102803D01F212CE01A212AE090
:406EC00001272846FEF714F9002823D02E4680360822611C7068FAF764FC7068617A20300172A17A417270682146183008220B31FAF757FC21462846042213313430FAF7DC
:406F000050FC39462846FDF7A3FE002810D1002F0FD012E007210322284600F06BFAF28A08212846FDF7DBF811212846FDF77DFCF8BD06212846FDF77BFC0098012101769D
:406F4000F8BD0000E017002010B5FDF7C1FE10BD38B504460020009020790D46032803D0042801D007281BD12046FCF79DFD012817D068460BF090F8002811D10C486A78A3
:406F8000807A00991040F12210402075607E082210436076204600F0B5F92046FDF78BFC38BD08222421204600F024FA38BD0000E017002070470000F3B581B00446029888
:406FC000FDF740FF06462046FEF721FC002828D0162E04D32046029900F0F7F821E025464035287800220300FAF7EAFD0E1414140808141414080808080808140298154B2D
:40700000017800201F5C8F4204D0401C0728F9D3002A0AD00F49B00008310A5820460299904702980BF088F8FEBDA078FFF7D0FC002301223D212046FDF788FD3D2028739C
:407040002046FFF722FE02980BF076F82046FDF796FFFEBD54D2010070B50D460021002801D0002400E00C4C002C14D020464030C177807F032802D12046FEF70DFD2046EC
:40708000FFF756FE162D04D20449A800095820468847FEF729FC70BD48180020B4D2010010B5014640310C4609780E2903D1FDF753FE0120207610BD10B54021095C0F29AD
:4070C00001D1FDF76CFE10BD4021095C0F2902D1002120304177704738B5044600220E4800920D46807AF1210840C0060ED52046FEF79EFB012809D068460AF0CDFF0028BF
:4071000003D12046009900F05FF938BD2946204600F05BF838BD0000E017002010B51021FCF7E8FF10BD10B54978FDF761FD10BD10B5FDF73CFE10BD012120304177704738
:4071400010B54021095C0C2901D1FDF745FE10BD10B54021095C0D2901D1FDF739FE10BD70B5044600790D46052803D0062801D0082802D12046FDF74DFD68784C21085563
:4071800009212046FDF754FB2046FFF77EFD2046FCF78AFC0128A07805D0FFF719FC2046FEF766FD70BDFFF71DFCF8E710B50446FF21FCF79FFF16214C200155A078FFF785
:4071C00007FC2046FEF754FD10BD70B50C460546FEF728FB002802D02078687570BD21782846FFF742FD70BD70B5054648780C46032802D12846FDF718FD6078122803D157
:4072000010212846FCF776FF03482146006842682846904770BD000090100020704738B5044600200D46009004212046FCF762FF68782076E8780002A081A9780843A081FB
