:400000000080002011000000851200008512000080B500AF01F068F980B500AF474B12221A6001F073FC464B180005F015FA012001F07CFC0C2001F0DBF9424B424A1A606C
:40004000424B8022D2051A60414B414A126802210A431A603F4B404A1A60404B00221A603F4B3F4A126808218A431A60FA23DB00180001F0B3FA3B4B180001F0E7FB3A4B2F
:4000800000221A60394B3A4A1A603A4B3A4A1A60364B3A4A1A603A4BFE2212021A60334B384A1A60384BFE2212021A602F4B374A1A60374B00221A602C4B364A1A60364BBD
:4000C00000221A60294B354A1A60354B802212061A60344B00221A60334B43221A60334B45221A60324B40221A60324B41221A60314B44221A60314B42221A60304B19006F
:40010000082001F0B5FA082001F02CFB0F4B2D4A1A602D4B802212031A60C0462A4B1A6880231B031340F9D1274B802252021A60024B00221A60C046BD4680BD3000104057
:40014000001BB70004010B40060000800C020B4078002E407C002E402D3E000064F02E406CF02E40DC0500000C0301400000014043FF00801403014000DB050045FF008087
:400180000003014040FF00800403014041FF00801003014044FF00800803014042FF008008010B4000010B40280101401C0101401401014010010140080101400401014070
:4001C000C11A00000000014F10020B4080B582B000AF72B6454B00221A60FB1D00221A7022E0FB1D1A7813005B009B185B00404A9B183B603B681A78597809020A439978DA
:4002000009040A43DB781B06134318003B681A795B791B0213439BB2190000F091FFFB1D1A78FB1D01321A70FB1D1B78012BD8D9304A314B1100180000F092FF2F4B80225C
:40024000D2021A602E4BEE2212061A602D4B2E4A1A602E4B2E4A1A602E4B992212041A602D4B992212041A602C4B992212041A602B4B992212041A602A4A2A4B1B78DBB22D
:400280003C218B43DBB214210B43DBB21370264A254B1B78DBB216210B43DBB21370234BD82212041A60224BD1221A60214B224A1A60224BD0221A60214B02221A60214BEB
:4002C00002221A60204BF0221A60204B204A1A60204B01221A60204B01221A60FFF79CFE00F080FFC046BD4602B080BD6CF02E40C09E0200DC9E0200CC9E020014000B40A2
:40030000000002400001024000000FFF000302400000EE8800500F4010500F4020500F4030500F4001700F4000700F400800044000010440080104403660D800180104406B
:40034000000204401802044000030440080304400040DA00000404401804044010B5064C2378002B07D1054B002B02D0044800E000BF0123237010BDB0130020000000002D
:400380007C980100084B10B5002B03D00749084800E000BF07480368002B00D110BD064B002BFBD09847F9E700000000B41300207C980100480E00200000000080B584B06F
:4003C00000AF78607B681B0B07221A4013009B009B185B00FB607B681B0A0F221340FA68D318FB60FB681800BD4604B080BDC04680B584B000AF78607B681B0D03221A40B0
:4004000013009B009B185B00FB607B681B0C0F221340FA68D318FB60FB681800BD4604B080BDC04680B584B000AF78607B681B0D03221A4013009B009B185B00FB607B6886
:400440001B0C0F221340FA68D318FB60FB681800BD4604B080BDC04680B584B000AF78607B681B0F01221A4013009B009B185B00FB607B681B0E0F221340FA68D318FB60EB
:40048000FB681800BD4604B080BDC04680B584B000AF78607B681B0B03221340FA2292005343FB607B681B0A0F22134064225343FA68D318FB607B681B090F221A401300C2
:4004C0009B009B185B001A00FB689B18FB607B680F221340FA68D318FB60FB681800BD4604B080BD80B500AF03F098FB0300022B02D1022003F09CFBC046BD4680BDC046E5
:4005000080B500AF04F01EFA03F05EFDC04603F087FD031EFBD1C046BD4680BD80B582B000AF002004F0C8FA0200FB1D1A70FB1D1B78002B05D10A4B00221A70084B1B78AA
:400540000AE0074B1B78002B01D0002304E0044B01221A70024B1B781800BD4602B080BDCF130020B0B5A2B002AF3A1D354B100019003F231A0005F084FC6423FB181800B6
:4005800002F0EAFC6423FB181B68FB676423FB185B68BB676423FB189B687B67FB6F1800FFF726FF0400FB6F1800FFF707FF030025495422B818220005F074FCBB6F180047
:4005C000FFF74AFF0400BB6F1800FFF72BFF0500BB6F1800FFF75AFF0200FA239900100005F014FA0B0019494422B81800932B00220005F057FC16495423FA18002300938C
:400600000B000021202000F069FB11494423FA18002300930B001C21002000F05FFB7B6F5A1E391D1300DB009B18CA180849002300930B003821002000F050FBC046BD46B5
:4006400020B0B0BD788302005883020064830200FFFF000080B584B002AF3B00554A1168196092889A8001F009FB02F0DFFB62B6514B180001F03AFC504B180003F0E6FA28
:4006800003F05EFA002004F039FA03F0E5FB03F0FFFF03F099FC04F0E9FA00F05DFB002000F02CFA06F0FAF8FFF72AFFFFF736FF031E11D0424B1B78DBB20133DAB2404BDB
:4006C0001A703F4B1B78DBB2022B02D93C4B00221A70002000F012FA394B1B78DBB2012B1BD0022B21D0002B00D05BE0354B1B78DBB2002B51D034493A00002300930B00FC
:400700000021002000F0EAFA30481C23009300234822802100F030FA3FE02A4B1B78DBB2012B3CD0FFF71EFF39E0264B1B78DBB2022B36D0264800230093002380228021AC
:4007400000F01AFA234B1B78DBB21A00224B9B56DBB24033D9B21F4B1B78DBB21A001F4B9B56DBB24622D31ADAB20023009313000A004621402000F027F9164B1B78DBB24C
:400780000133DAB2134B1A70124B1B78DBB20B2B07D9104B00221A7003E0C04602E0C04600E0C046064B1B78DAB2064B1A70044B1B7877E7B8830200410E0000E504000040
:4007C000CC130020CD130020FFFF0000583B020088B30100CE1300204C0E0020580E002080B500AF012001F0E1F9012001F008F8002001F0DBF9322001F002F8012001F014
:40080000D5F9782000F0FCFFC046BD4680BDC04680B582B000AF0200FB1D1A70012001F0EDF9FB1D1B78180001F06EFAC04601F045FA0300012BFAD101F050FAC046BD46D9
:4008400002B080BD80B584B000AF0200BB1D1A80BB1D1B881B0A9AB20F23FB181A700E23FB18BA1D12881A70012001F0C7F90F23FB181B78180001F047FAC04601F01EFA00
:400880000300012BFAD101F029FA0E23FB181B78180001F039FAC04601F010FA0300012BFAD101F01BFAC046BD4604B080BDC04680B582B000AF0200FB1D1A70002001F04B
:4008C0009DF9FB1D1B78180001F01EFAC04601F0F5F90300012BFAD101F000FAC046BD4602B080BDB0B582B000AF05000C0010001900FB1D2A1C1A70BB1D221C1A707B1D34
:40090000021C1A703B1D0A1C1A702A20FFF7D0FF0020FFF77DFFFB1D1B781800FFF778FF0020FFF775FF7B1D1B781800FFF770FF2B20FFF7BDFF0020FFF76AFFBB1D1B781D
:400940001800FFF765FF0020FFF762FF3B1D1B781800FFF75DFF2C20FFF7AAFFC046BD4602B0B0BD90B583B000AF040008001100BB1D221C1A803B1D021C1A80BB1C0A1C25
:400980001A80BB1D1B88D8B23B1D1B88D9B2BB1D1B88DAB23B1D1B88DBB2FFF7A3FF2C20FFF786FFBB1C1B881B0A9BB2DBB21800FFF72EFFBB1C1B88DBB21800FFF728FF34
:4009C000C046BD4603B090BDB0B58AB000AF05000C0010001900FB1D2A1C1A70BB1D221C1A707B1D021C1A703B1D0A1C1A707B1D1A78FB1D1B78D31A3B623B1D1A78BB1D75
:400A00001B78D31AFB613B6ADA179B185340BB61FA1D7B1D12781B789A4201D2012301E001235B427B61FB69DA179B1853405B423B61BA1D3B1D12781B789A4201D20123D2
:400A400001E001235B42FB60BA693B69D3187B62FB1D1B785BB2002B48DBBB1D1B785BB2002B43DB7B1D1B785BB2002B3EDB3B1D1B785BB2002B39DBFB1D1B7898B2BB1DA3
:400A80001B789BB23822BA1812881900FFF76AFF7B6A5B00BB60BA683B699A4210DBFA1D7B1D12781B789A4222D07A6A3B69D3187B627B69D9B2FB1DFA1D12788A181A70F2
:400AC000BA68BB699A42D7DCBA1D3B1D12781B789A420FD07A6ABB69D3187B62FB68D9B2BB1DBA1D12788A181A70C5E7C04602E0C04600E0C046BD460AB0B0BD80B584B0E4
:400B000000AF0200BB1D1A807F237F2200210020FFF7E8FE0E23FB1800221A8021E00C23FB1800221A800DE0BB1D1B881800FFF789FE0C23FB181B889BB201339AB20C2355
:400B4000FB181A800C23FB181B889BB27F2BEBD90E23FB181B889BB201339AB20E23FB181A800E23FB181B889BB27F2BD7D9C046BD4604B080BDC04690B585B000AF786007
:400B80000C0010001900FB1C221C1A70BB1C021C1A707B1C0A1C1A70FB1C1B785B00BA1C12785343FB607A1CFB1C12781B78D318DBB2013BDCB22023FA18BB1C12781B78B0
:400BC000D318DBB2013BDAB22023FB1819787B1C187813002200FFF785FE2C20FFF768FE012001F00BF8FA687B681100180001F0A1F8C04601F062F80300082BFAD101F001
:400C00006DF801F0B1F8C046BD4605B090BDC046B0B586B000AF05000C0010001900FB1D2A1C1A70BB1D221C1A707B1D021C1A70BB1C0A1C1A80FB1D1B780F33DAB2BB1D70
:400C40001B781B33DCB2BB1D1978FB1D18782300FFF748FE2C20FFF72BFE00237B6134E07B1D1B78203B1A001300DB009B1ADB001A007B69D2180F23FB1817498A5C1A70FC
:400C800000233B611BE00F23FB181B780122134005D0BB1C1B881800FFF7D4FD05E02823FB181B881800FFF7CDFD0F23FB180F22BA18127852081A703B6901333B613B6972
:400CC000072BE0D97B6901337B617B69372BC7D9C046BD4606B0B0BDC089020090B587B002AF040008003A601900FB1D221C1A70BB1D021C1A703B1D0A1C1A800F23FB180F
:400D000000221A701FE00F23FB181B781B01DAB2FB1D1B78D318D8B23B681A783B1D1C88BB1D19782023FB181B8800932300FFF76FFF3B6801333B600F23FB181A780F2340
:400D4000FB1801321A703B681B78002BDBD1C046BD4605B090BDC04680B500AFFFF740FD1120FFF7A5FD642000F04AFD2620FFF79FFD0420FFF74CFD1320FFF749FDC02060
:400D8000FFF796FD0A20FFF743FD0220FFF740FDC120FFF78DFD0220FFF73AFDC520FFF787FD5020FFF734FD9920FFF731FDC720FFF77EFD0020FFF72BFD3820FFF778FD19
:400DC0003A20FFF775FD0520FFF722FDB120FFF76FFD0820FFF71CFD0220FFF719FD2A20FFF766FD0020FFF713FD0020FFF710FD0020FFF70DFD7F20FFF70AFD2B20FFF776
:400E000057FD0020FFF704FD0020FFF701FD0020FFF7FEFC7F20FFF7FBFC3620FFF748FD0020FFF7F5FC2920FFF742FD2020FFF73FFD2C20FFF73CFDC046BD4680BDC04648
:400E400080B58EB002AF786039602C23FB1800221A802B23FB1800221A70A24B00221A707B68282B08D04C2B0AD0012B00D034E1002001F0D1F830E1002001F0CDF82CE1DB
:400E80003B687B627B6A9B89122B00D0E4E02F23FB1800221A7013E02F23FB181A787B6A59682F23FB181B78CB1819781423FB1899542F23FB181A782F23FB1801321A707B
:400EC0002F23FB181B780C2BE6D92E23FB1800221A7012E02E23FB181B782E22BA18127814217918895C0C22BA18D1542E23FB181A782E23FB1801321A702E23FB181B7881
:400F00001422BA18D35C202BE4D12E23FB181B78012B0DD10C23FB181A780C23FB189A700C23FB1830225A700C23FB1830221A702E23FB181B78022B0FD10C23FB185A78C5
:400F40000C23FB189A700C23FB181A780C23FB185A700C23FB1830221A702E23FB181A782E23FB1801321A702F23FB1800221A7019E02F23FB181B782E22BA18127814212D
:400F80007918895C0822BA18D1542E23FB181A782E23FB1801321A702F23FB181A782F23FB1801321A702E23FB181B781422BA18D35C202BDDD12F23FB181B78012B0DD141
:400FC0000823FB181A780823FB189A700823FB1830225A700823FB1830221A702F23FB181B78022B0FD10823FB185A780823FB189A700823FB181A780823FB185A70082305
:40100000FB1830221A700C23FB18180004F0F8FE02002C23FB181A800823FB18180004F0EFFE02002B23FB181A702C23FB181B882D4A2B2179180978D1542B480023009333
:4010400000230F220F21FFF797FD1423FB1812220D21180000F04CF87B6A9B89152B2DD12F23FB1800221A7013E02F23FB181A787B6A59682F23FB181B78CB1819781023E3
:40108000FB1899542F23FB181A782F23FB1801321A702F23FB181B78012BE6D91023FA18002300931F2310210020FFF717FE1023FB1815220221180000F01AF80B4B1A78F9
:4010C0005B781B021A4300231204120C1B0C1B041343180012F082FEC046C046BD460CB080BDC04602270020402500201027002080B586B000AF786008001100FB1C021CA3
:401100001A703B000A1C1A800C23FB183A0012881A810C23FB187A681A60FB1C1B789AB20C23FB189A80054A0C23F8184023002113F068FCC046BD4606B080BD10270020BD
:4011400080B582B000AF786039603A687B680021180004F09FFEC046BD4602B080BDC04680B586B000AF7860396000233B6100237B612FE07B699B007A68D3181B68BB6059
:401180000F23FB18BA681A70BB68FF229343BB6018E03B695B003A68D3181B781A00BB68D31819003B695B003A68D3185B780B703B6901333B610F23FB181A780F23FB1847
:4011C000013A1A700F23FB181B78002BE1D17B6901337B617B69032BCCD9C046BD4606B080BDC04680B500AF074B03221A60074B03221A60064B00221A60012000F00AF802
:40120000C046BD4680BDC0463000304030003140000E3F4080B584B000AF0200FB1D1A70154B1B68FB60FB1D1B78002B05D0FB68802212061343FB6003E0FB685B005B081D
:40124000FB600D4BFA681A600C4B1B68FB60FB1D1B78002B05D0FB68982292051343FB6003E0FB68064A1340FB60044BFA681A60C046BD4604B080BD80033A4008010B40E0
:40128000FFFFFFD980B500AF04F0C0FD03001B680C2B00D1FEE7FEE780B584B000AF78600F4B1A687B68D3181A000E4BD31A802B09DC0B4B1B68FB60094B1A687B68D2180A
:4012C000074B1A6007E004F0A1FD03000C221A6001235B42FB60FB681800BD4604B080BD640E00209027002080B586B000AF224B7B61224B3B61204B7B6135E03B691B681B
:40130000FB603B695B68BB603B699B683B6000237B600CE0FB681A68BB681A60BB680433BB60FB680433FB607B6804337B607A683B689A42EED13B69DB683B6000237B6023
:4013400008E0BB6800221A60BB680433BB607B6804337B607A683B689A42F2D13B6910333B617B69013B7B617B69002BC6D104F053FDFFF76FF9FEE70100000060A5020084
:4013800080B582B000AF154B144A126801218A431A6000237B600FE07B68032B04D8104B7A689200D35800E00E4B0F4A796889008B507B6801337B607B682F2BECD9FEF7E2
:4013C00005FF0A4B00221A60044B044A126801210A431A60C046BD4602B080BD00001040000000008512000000000020C000002090B585B000AF78600C23FC1804F035F8B4
:40140000030023707B68022B00D8B3E07B68302B00D9AFE05E4B1B78DBB21A007B689A420AD35C4A0F23FB1812781A705A4A0E23FB1812781A703FE0584B1B78DBB21A007F
:401440007B689A420AD3564A0F23FB1812781A70544A0E23FB1812781A702DE0524B1B78DBB21A007B689A420AD3504A0F23FB1812781A704E4A0E23FB1812781A701BE083
:401480004C4B1B78DBB21A007B689A420AD34A4A0F23FB1812781A70484A0E23FB1812781A7009E0464A0F23FB1812781A70454A0E23FB1812781A707B68DA1E0B23FB1813
:4014C00041498A5C1A700B23FB181B782F2B0DD97B682A2B0AD93D4B19221A60052003F0BBFF0D23FB1819221A7007E0374B1B68DAB20D23FB183F210A401A700B23FA187D
:401500000D23FB1812781B789A4208D22F4B7A68033A2D498A5C1A60052003F09DFF7B68284A9A180A23FB1812781A70284B0A22BA1812781A60274B0F22BA1812781A6029
:40154000254B0E22BA1812781A60052000F07EF90B23FA180D23FB1812781B789A420CD91A4B7A68033A18498A5C1A60052003F073FF02E0002000F037F90C23FB181B7842
:40158000180003F076FFC046BD4605B090BDC04640F3FF0F41F3FF0F42F3FF0F43F3FF0F44F3FF0F45F3FF0F46F3FF0F47F3FF0F48F3FF0F49F3FF0F4AF3FF0F4BF3FF0F4C
:4015C0004CF3FF0F4DF3FF0FFC9E02002CFF0B4028FF0B401CFF0B4020FF0B4080B584B000AF78600023FB60154B154A126801210A431A60134B144A1A60144B134A126800
:40160000802109020A431A607B68002B12D01023FB600CE0012000F019F900F019F8031E02D00023FB6005E07B68013B7B607B68002BEFD1FB681800BD4604B080BDC04616
:4016400060F02E4078002E400220000010002E4080B582B000AF054B1B68012213407B607B681800BD4602B080BDC0460C002E4080B584B000AF02003960FB1D1A70802387
:401680009B05FB60FB1D1B781F2B02D9002000F0ABF8FB1D1B7810339B00FA68D3181B68BB60FB1D1B7810339B00FA68D3183A681A60BB681800BD4604B080BD90B587B09B
:4016C00000AF0200FB1D1A70BB1D0A1C1A70BB1D1B78032B02D9002000F086F8FB1D1B781F2B02D9002000F07FF8FB1D1B7803221340DB0006337B611323FC1803F0B5FEB3
:4017000003002370FB1D1B789B08DBB29B00144A944663441B68FB6003227B699A401300DA43FB681340FB60BB1D1A787B699A401300FA681343FB60FB1D1B789B08DBB293
:401740009B00074A94466344FA681A601323FB181B78180003F08DFEC046BD4607B090BD00E400E080B582B000AF0200FB1D1A70064BFA1D12781F210A40012191400A00AA
:401780001A60C046BD4602B080BDC04600E100E080B582B000AF0200FB1D1A70064BFA1D12781F210A40012191400A001A60C046BD4602B080BDC04680E100E080B582B09D
:4017C00000AF0200FB1D1A70064BFA1D12781F210A40012191400A001A60C046BD4602B080BDC04680E200E080B582B000AF0200FB1D1A7001BEC046BD4602B080BDC046EC
:4018000080B582B000AF786009E00D4B1B68180003F022FE7B680B4A944663447B607A6880231B029A42F0D8074B1B687A685343180003F011FEC046BD4602B080BDC0468C
:40184000740E00200080FFFF6C0E002080B582B000AF0200BB1D1A80BB1D1B88044A12785343180003F0F8FDC046BD4602B080BD700E002080B500AF0F4B0F4A1268012172
:401880008A431A600C4B0C4A126802218A431A600A4B0A4A126830218A4310210A431A60064B064A126807218A4301210A431A60C046BD4680BDC04600F02E4000FF2E4007
:4018C00080B500AF0F4B0F4A126802218A431A600D4B0D4A126807218A4302210A431A60094B094A126830218A4320210A431A60044B044A126801210A431A60C046BD4615
:4019000080BDC04600F02E4000FF2E4080B500AFFFF7B0FF044B044A1268802109060A431A60C046BD4680BD00F02E4080B584B000AF78600C4B1B6801221340FB607B6860
:40194000002B02D0012B03D005E0FFF793FF06E0FFF7B6FF03E00020FFF746FFC046FB681800BD4604B080BD00F02E4090B583B000AFFC1D03F079FD03002370074B074A7A
:401980001268C02109020A431A60FB1D1B78180003F06FFDC046BD4603B090BD00010B4080B500AF054B1A68C0231B02134001D0012300E000231800BD4680BD00010B40DE
:4019C00090B583B000AFFC1D03F04FFD030023700D4B0D4A12680D490A408021C9010A431A60094B084A126808490A40802109020A431A60FB1D1B78180003F03AFDC046B6
:401A0000BD4603B090BDC04600010B40FF3FFFFF90B585B000AF78600B23FC1803F025FD03002370FFF7BCFF031E04D00123FB60FFF7C6FF01E00023FB607B680D4A13405B
:401A40007B600D4B0C4A12680C4911407A680A431A60094B1B68FB68012B01D1FFF786FF0B23FB181B78180003F003FDC046BD4605B090BD0404040010020B40FBFBFBFF1E
:401A800080B584B000AF786039600023FB607B68022B0AD8094B7A689200D358FB60074B7A6892003968D15002E00020FFF79CFEFB681800BD4604B080BDC046DC13002041
:401AC00080B500AF344B1B68042213401FD0334B1B680422134017D0314B1B6804221340DA432E4B1B681A402C4B1A602C4B1B68042293431A002A4B1A602A4B1B68002B39
:401B000002D0284B1B6898470420FFF781FF224B1A688023DB00134022D0204B1A688023DB00134017D01E4B1A688023DB001340DA431A4B1B681A40184B1A60184B1B682F
:401B4000194A1A40164B1A60164B5B68002B02D0144B5B6898478023DB001800FFF758FF0D4B1A688023DB02134011D00B4B1A688023DB02134006D00A4B9B68002B02D064
:401B8000084B9B6898478023DB021800FFF740FFC046BD4680BDC04610020B40800E0020D8130020DC130020FFFBFFFF80B584B000AF0200FB1D1A700F4B1B68DAB20F2363
:401BC000FB1802218A431A70FB1D1B78DB18DBB202221340D9B20F23FB180F22BA1812780A431A70044B0F22BA1812781A60C046BD4604B080BDC0460001044080B584B07E
:401C000000AF0200FB1D1A700E4B1B68DAB20F23FB1801218A431A70FB1D1B7801221340D9B20F23FB180F22BA1812780A431A70044B0F22BA1812781A60C046BD4604B0C3
:401C400080BDC0460001044080B500AF00F0A2F8C046BD4680BDC04680B500AF064B064A1268802109060A431A6000F019F800F01DF8C046BD4680BD0000244080B500AF18
:401C8000064B1B78002B04D1FFF7DEFF034B01221A70FFF7E1FFC046BD4680BDF813002080B500AFC046BD4680BDC04680B500AF00F0C2F8C046BD4680BDC04680B582B0BA
:401CC00000AF054B1B681F2213407B607B681800BD4602B080BDC0460803244080B500AF074B074A1268802149020A431A60044B034A126803490A401A60C046BD4680BD71
:401D000004032440FFFFFEFF80B582B000AF7860C046064B1B681F221340082BF9D0044B7A681A60C046BD4602B080BD080224404002244080B584B000AF78603960002382
:401D4000FB6009E07A68FB68D3181B781800FFF7DBFFFB680133FB60FA683B689A42F1D3C046BD4604B080BD80B500AF074B074A1268802149020A431A60044B034A126819
:401D800003490A401A60C046BD4680BD04022440FFFFFEFF80B500AF174B184A1A60184B184A1A60184B194A1A60194B07221A60184B164A1A60184B00221A60174B002200
:401DC0001A60174B00221A60164B00221A60164B00221A60154B00221A60154B00221A60134B1B689AB2134B1A80002000F042F8C046BD4680BDC046000024400F0000014A
:401E000020002440010000800003244007010080040324400002244004022440880E2440C80E2440480F2440080F2440C80F2440880F2440FA13002080B500AF0A4B0A4A19
:401E40001268F02109060A431A60074B064A1268F02109050A431A60044B054A12881A60C046BD4680BDC04600010240880F2440FA13002080B584B000AF78600A4B1B68CE
:401E8000FB60FB68094A1340FB607B689A06C0231B051340FA681343FB60034BFA681A60C046BD4604B080BD20002440FFFFFFF380B500AF064B00221A70064B00221A7001
:401EC000054B00221A7000F009F8C046BD4680BD132700200C2700201227002080B500AF00F02CFCC046BD4680BDC046B0B594B004AF78603E23FB1800221A802823FA18A0
:401F00003E4B1000190014231A0003F0BAFF3C4B1B78002B04D1FFF7CBFF394B01221A707B68002B5ED0374B7A681A603E23FB181B88002B2BD11023FB181C22BA185A607F
:401F40001023FB182022BA181A601023FB1802221A812023FB181B221A802023FB181B225A802023FB1804221A711C23FB1808221A7004F089FC3E23FC180E23FA1810237D
:401F8000FB181100180004F065FD030023803E23FB181B88002B29D13E23FC182823FD18D8231A01184919480023029300230193052300932B0004F0A3FC030023803E2311
:401FC000FB181B88002B11D1114B01221A703E23FC18104B0E221B21180012F0FBFC0300238003E03E23FB1801221A803E23FB181B881800BD4610B0B0BDC0462C9F0200DC
:40200000FC13002004270020C8000020512300000A270020889F020090B585B000AF0200FB1D1A70FB1D1B78022B04D90E23FB1801221A804AE0294B1B78042B41D1284BE8
:402040001B78DBB21A00042313403AD1FB1D1B78002B0BD1234B1E221A82224B5B6820221A80204B5B6830225A8010E0FB1D1B78012B0CD11B4B96221A821A4B5B68C822CF
:40208000D2001A80174B5B688022D2015A80164BFA1D12781A700E23FC18124B180010F0CFFC030023800E23FB181B88002B0DD10B4B1B78DBB204221343DAB2084B1A703E
:4020C00004E00E23FB180422FF321A800E23FB181B881800BD4605B090BDC0460A27002013270020D40E00201227002080B584B000AF78600A00FB1C1A700023BB60BB68BB
:40210000002B20D07B689A79BB681A700F23FB1800221A7012E00F23FB181B780133BA68D3180F22BA18127879688A5C1A700F23FB181A780F23FB1801321A700F23FB18E9
:402140001B78052BE7D9C046BD4604B080BDC04680B582B000AF78607B681B789AB27B6801331B789BB21B029BB213439BB21800BD4602B080BDC04690B585B000AF786017
:402180000F23FB1800221A707B689B890F22934232D17B68181D7A680F23FC184023002112F030FC030023700F23FB181B78002B1AD17B685B681800FFF7CAFF03001A000E
:4021C000022313409BB2002B07D00F4B1B687968822252001000984706E00B4B1B6879680622FF3210009847084B1B78DBB201229343DAB2054B1A700F23FB181B781800CB
:40220000BD4605B090BDC046042700201327002090B585B000AF78600F23FC187B681800FFF7AAFF03002370154B1B78DBB21A00012313401FD10F23FB181B78002B16D08D
:402240000823FB1812229A707B689A890823FB181A800823FB180F22BA181278DA700823FA187B681100186811F036FD03E07B68186811F0B3FDC046BD4605B090BDC04602
:402280001327002080B582B000AF7860C046BD4602B080BD80B500AF044B00225A70034B00221A70C046BD4680BDC0461027002080B582B000AF7860C046BD4602B080BD3C
:4022C00080B500AFC046BD4680BDC04680B584B000AF78600E23FB1800221A707B689B79002B1CD10F23FB1800221A7012E00F23FB181B787A68D35C002B04D00E23FB18B0
:4023000001221A700BE00F23FB181A780F23FB1801321A700F23FB181B78052BE7D90E23FB181B781800BD4604B080BD80B582B000AF0200BB1D1A80C046BD4602B080BDFF
:4023400080B582B000AF7860C046BD4602B080BD80B58CB000AF02003960FB1D1A70D64B1B78DBB201221343DAB2D34B1A70FB1D1B78712B00D999E19A00D04BD3181B686F
:402380009F461C23FB1807221A701C23FB1800225A701C23FB18180006F0A2FA1C23FB1807221A701C23FB1801225A701C23FB18180006F095FA0B23002B01D004F060FA4E
:4023C000BF4B1B681800FFF781FF031E11D0BC4B1B68180004F066FAB94B1B6800211800FFF784FEB64B1B6801211800FFF77EFE36E0B44B1B781A003F231A40B24B1B7854
:402400009901FC231B010B401A43B04B1B781903F8235B020B401A43AD4B1B785904FE231B040B401343BB62BB6ADAB2A94B1A70BB6A1B0ADAB2A74B5A70BB6A1B0CDAB2D6
:40244000A44B9A70A34B180004F02CFAA14B00211800FFF74BFE9F4B01211800FFF746FE032010F081F91823FA189B4B1000190002231A0003F005FD1823FB18180010F0EE
:4024800091F9964B04221A7039E13B681800FFF70FFF34E13B681A78914B1A702FE13B687B627B6A1B78002B00D001E17B6A5B78002B0BD18B4B0022DA808A4B00229A8071
:4024C000884B894A1A607B6A864A5A607A4B1B78DBB201229343DAB2774B1A70E8E0764B1B78DBB21A002023134000D0E2E07F4B1B78102B02D17D4B0522DA707C4B1B78AE
:402500007A4A1100180010F059FA03001A001623FB181A801623FB181B88002B06D0754B1B681622BA18110036209847624B1B78DBB201221343DAB25F4B1A70BAE03B6892
:402540001800FFF7FDFEDAE03B683B623B6A9A7E0C23FB181A703B6A1A880C23FB185A803B6A5A880C23FB189A803B6A9A880C23FB18DA800C23FB181800FFF7E1FE574B55
:4025800002221A70BBE03B681800FFF7D9FE534B02221A70B3E0514B04221A70AFE04F4B1B78022B00D1A9E0434B1B78DBB21A000123134000D1A1E03F4B1B78DBB21A0087
:4025C000042313400BD0454B03221A703A4B1B78DBB204229343DAB2374B1A708EE0364B1B78DBB21A00082313400BD03B4B04221A70314B1B78DBB208229343DAB22E4BB5
:402600001A707BE0354B1B78032B00D076E0334B04221A70384B1B78002B00D06EE00120FFF7FAFC031E69D12C4B03221A7065E03B681B881800FFF779FE60E02C4A3B68CA
:402640001000190002231A0003F01BFC244B00221A70FFF735FE52E0FFF71CFE4FE03B685B88162B05D82E23FB183A6852881A8003E02E23FB1817221A802E23FB181988F6
:402680003B681A8800231204120C1B0C1B041343180011F02BFB32E03B681800FFF7B8FD2DE03B681800FFF7EDFD28E0C04626E0C04624E0C04622E013270020B4A10200AC
:4026C000F00E00207CF2FF0F7DF2FF0F7BF2FF0F78F2FF0FE80E0020B0A102000A2700200C27002000140020480E0020E80F0020102700200427002012270020C0460D4BA9
:402700001B78DBB21A00112313400ED0094B1B78DBB201229343DAB2064B1A70064B1B68FA1D1278396810009847C046BD460CB080BDC046132700200427002080B500AF90
:40274000C046BD4680BDC04680B582B000AF786039607B683A681A403B689A4201D1012300E000231800BD4602B080BD80B584B000AF78607B680322134006D17B6864219B
:40278000180003F043F90B1E07D17A68C8235900100003F03BF90B1E02D10123FB6001E00023FB60FB681800BD4604B080BDC04680B584B000AF78607B681B0907221A40AB
:4027C00013009B009B185B00FB607B680F221340FA68D318FB60FB681800BD4604B080BD80B584B000AF78607B681B0B07221A4013009B009B185B00FB607B681B0A0F2278
:402800001340FA68D318FB60FB681800BD4604B080BDC04680B584B000AF78607B681B0D03221A4013009B009B185B00FB607B681B0C0F221340FA68D318FB60FB681800E6
:40284000BD4604B080BDC04680B582B000AF78608023DA037B6811001800FFF775FF03001800BD4602B080BD80B584B000AF78607B681B0D03221A4013009B009B185B0037
:40288000FB607B681B0C0F221340FA68D318FB60FB681800BD4604B080BDC04680B584B000AF78607B681B0F01221A4013009B009B185B00FB607B681B0E0F221340FA688F
:4028C000D318FB60FB681800BD4604B080BDC04680B584B000AF78607B681B0B03221340FA2292005343FB607B681B0A0F22134064225343FA68D318FB607B681B090F2285
:402900001A4013009B009B185B001A00FB689B18FB607B680F221340FA68D318FB60FB681800BD4604B080BD80B582B000AF786039607B687F2293437B603B680A211800D6
:4029400002F0DEFF03001B017A6813437B603B680A21180003F05AF80B001A007B6813437B607B681800BD4602B080BD80B582B000AF786039607B680D4A13407B603B6873
:402980000A21180002F0BCFF03001B037A6813437B603B680A21180003F038F80B001B027A6813437B607B681800BD4602B080BDFF80FFFF80B582B000AF786039607B68DB
:4029C0000D4A13407B603B680A21180002F098FF03001B057A6813437B603B680A21180003F014F80B001B047A6813437B607B681800BD4602B080BDFFFFC0FF80B582B07A
:402A000000AF786039607B680D4A13407B603B680A21180002F074FF03001B057A6813437B603B680A21180002F0F0FF0B001B047A6813437B607B681800BD4602B080BD9C
:402A4000FFFFC0FF80B582B000AF786039607B680D4A13407B603B680A21180002F050FF03001B077A6813437B603B680A21180002F0CCFF0B001B067A6813437B607B6886
:402A80001800BD4602B080BDFFFFFFE080B582B000AF786039607B689B0B9B037B603A68FA239900100002F02BFF03001B037A6813437B603A68FA239900100002F0A6FFEF
:402AC0000B003B603B686421180002F019FF03001B027A6813437B603B686421180002F095FF0B003B603B680A21180002F008FF03001B017A6813437B603B680A21180050
:402B000002F084FF0B001A007B6813437B607B681800BD4602B080BD80B582B000AF78607B683A2B02D87B68013300E000231800BD4602B080BDC04680B582B000AF7860D2
:402B40007B68162B02D87B68013300E000231800BD4602B080BDC04680B586B000AFF860B9607A603B60FA68BB681100180000F08BFF03003B613B68082213400DD07B6886
:402B800007337B617A693B699A4203D97A693B69D31A00E07B697B6108E07A683B699A4202D27B68013300E001237B617B691800BD4606B080BDC04680B582B000AF7860B1
:402BC0007B680B2B02D87B68013300E001231800BD4602B080BDC04680B582B000AF78607B6801331800BD4602B080BD80B582B000AF78607A6880231B04134001D00123CE
:402C000000E000231800BD4602B080BD80B586B000AFF860B9607A603B60FB68DB057B61BB689B057A6913437B617B680A21180002F066FE03001B057A6913437B617B68F9
:402C40000A21180002F0E2FE0B001B047A6913437B613B680A21180002F052FE03001B037A6913437B613B680A21180002F0CEFE0B001B027A6913437B613B6A0A211800D9
:402C800002F03EFE03001B017A6913437B613B6A0A21180002F0BAFE0B001A007B6913437B617B691800BD4606B080BD80B586B000AFF860B9607A607B687B61FB680A2141
:402CC000180002F01DFE03001B073B61FB680A21180002F09BFE0B001B063A6913433B61BB680A21180002F00BFE03001B053A6913433B61BB680A21180002F087FE0B00FB
:402D00001B043A6913433B617A68FA239900100002F0F6FD03001B033A6913433B617A69FA239900100002F071FE0B007B617B696421180002F0E4FD03001B023A6913433E
:402D40003B617B696421180002F060FE0B007B617B690A21180002F0D3FD03001B013A6913433B617B690A21180002F04FFE0B001A003B6913433B613B691800BD4606B0CC
:402D800080BDC04690B587B000AFF860B9607A60BB68022B05D8BB680C33BB607B68013B7B60BB6801331A2253430A21180002F0A7FD03001A00FB68D2187B68D2187B689A
:402DC0009B08D4187B686421180002F099FD03001A0013005B009B185B00E4187A68C8235900100002F08CFD0300E3180721180002F00CFE0B007B617B69002B01D10723CA
:402E00007B617B691800BD4607B090BD80B582B000AF7860044A7B6811001800FEF730FEC046BD4602B080BD8135000080B500AF054B1B78002B01D100F008F80220FFF7CE
:402E4000E5FFC046BD4680BD3027002080B584B002AF154B01221A70144B00221A60144B0022DA60134B00221A70134B01221A60124B1A0017210C20FFF718FF03007B6009
:402E8000002300933023172200210120FFF7BEFE03003B607A683B681100180000F010F8C046BD4602B080BD30270020101400203C2700203827002034270020E107000080
:402EC00090B587B000AF786039603B681800FFF7CBFC03007B613B681800FFF7DFFC03003B613B681800FFF7F3FC0300FB607A683B681100180000F0B3FB03000C00114A00
:402F000013605460104B3A685A600F4B7A681A60FA6839697B691800FFF734FF02000A4B9A600A4B1B68DAB2094B1100180000F08BF903000C00074A13605460C046BD469E
:402F400007B090BD282700203C270020F00F0020182700201814002090B585B002AF78600A4B1B68190000231A00094B5C681B685B1854417968012200921A0023000800E2
:402F800000F036FCC046BD4603B090BD1014002028270020B0B58EB002AFB860F960FB1D1A700123BB62BB68FC681022B918002200921A002300080000F01AFCFB1D1B7857
:402FC0000122134001D1012300E00023002B21D01023FB181B681800FFF7EAFB03007B627B6A1800FFF798FD0300FB621023FB181B68FA6A11001800FFF796FC02001023AF
:40300000FB181A60FA6A7B6A9A4201D2012300E00023BB62BB6A002B26D0FB1D1B780222134021D11023FB181B681800FFF7D8FB03007B627B6A1800FFF76EFD0300FB6225
:403040001023FB181B68FA6A11001800FFF78EFC02001023FB181A60FA6A7B6A9A4201D2012300E00023BB62BB6A002B26D0FB1D1B780422134021D11023FB181B6818003F
:40308000FFF7C8FB03007B627B6A1800FFF754FD0300FB621023FB181B68FA6A11001800FFF788FC02001023FB181A60FA6A7B6A9A4201D2012300E00023BB62BB6A002BB5
:4030C00065D0FB1D1B781022134060D11023FB185B681800FFF7C8FB03007B62FB1D1B780822134021D01023FB185B681800FFF7D5FB04001023FB185B681800FFF7E8FB82
:4031000003001900200000F0BFFC03003B627B6A0733FB62FA6A3B6A9A4203D9FA6A3B6AD31A00E0FB6AFB621DE01023FB185B681800FFF7CDFB04001023FB185B68180032
:40314000FFF7ACFB05001023FB185B681800FFF78BFB0200FB1D1B78DB4329002000FFF7FBFC0300FB621023FB185B68FA6A11001800FFF743FC02001023FB185A60FA6A7E
:403180007B6A9A4201D2012300E00023BB62BB6A002B26D0FB1D1B782022134021D11023FB185B681800FFF779FB03007B627B6A1800FFF701FD0300FB621023FB185B68FA
:4031C000FA6A11001800FFF73DFC02001023FB185A60FA6A7B6A9A4201D2012300E00023BB62BB6A002B1ED0FB1D1B784022134019D11023FB185B681800FFF769FB0300CF
:403200007B627B6A1800FFF7E7FC0300FB621023FB185B68FA6A11001800FFF737FC02001023FB185A601023FB185A681023FB181B681900100000F013FA03000C0018009C
:403240002100BD460CB0B0BD90B58FB002AF78600A00FB1C1A700023BB6200237B62C74B5C681B680822B918002200921A002300080000F0BDFA0823FB181B681800FFF746
:4032800097FA03003B627B681B681800FFF790FA0300FB623A6AFB6A9A4201D9012300E00023FB61FB1C1B780122134001D1012300E00023002B06D0FB69002B01D13B6A1D
:4032C00000E00023FB62FA6A7B6A11001800FFF72BFB03007B620823FB181B681800FFF77FFA03003B62FB1C1B78022213400BD1FB69002B05D03B6A1800FFF70DFC0300F8
:4033000000E03B6AFB6206E07B681B681800FFF767FA0300FB62FA6A3B6A9A4201D2012300E00023FB61FA6A7B6A11001800FFF71DFB03007B620823FB181B681800FFF726
:4033400069FA03003B62FB1C1B78042213400BD1FB69002B05D03B6A1800FFF7EDFB030000E03B6AFB6217E07B681B681800FFF751FA0300FB627B681B681800FFF736FCAB
:40338000031E09D07B681B681800FFF75DFA031E02D0FB6A0C33FB62FA6A3B6A9A4201D2012300E00023FB61FA6A7B6A11001800FFF700FB03007B620823FB185B681800BD
:4033C000FFF752FA03003B627B685B681800FFF74BFA0300FB62FB1C1B781022134057D1FB1C1B780822134038D00823FB185B681800FFF753FA04000823FB185B68180093
:40340000FFF766FA03001900200000F03DFB0300BB610823FB189A687B689B689A4206D87B689A680823FB189B68D31A06E07B689A680823FB189B68D31A0733FB62FA6ACC
:403440003B6AD318FB62FA6ABB699A4203D9FA6ABB69D31A00E0FB6AFB6219E0FB69002B14D00823FB185B681800FFF731FA04000823FB185B681800FFF710FA01003A6AA0
:4034800010232000FFF768FB030000E03B6AFB62FA6A3B6A9A4201D2012300E00023FB61FA6ABB6A11001800FFF7A8FA0300BB620823FB185B681800FFF7F0F903003B623E
:4034C000FB1C1B78202213400BD1FB69002B05D03B6A1800FFF770FB030000E03B6AFB6206E07B685B681800FFF7D8F90300FB62FA6A3B6A9A4201D2012300E00023FB6144
:40350000FA6ABB6A11001800FFF79CFA0300BB620823FB185B681800FFF7DAF903003B62FB1C1B78202213400BD1FB69002B05D03B6A1800FFF750FB030000E03B6AFB6249
:4035400006E07B685B681800FFF7C2F90300FB62FA6ABB6A11001800FFF798FA0300BB627A6ABB6A1100180000F07AF803000C0018002100BD460DB090BDC04628270020DE
:40358000F0B583B000AF2C4B1A682C4B1B68D218294B1A60284B1A68294B1B689A4246D3284B5C681B68012100225B185441254A13605460204B00221A60234B1B683B60A9
:4035C00000237B601F4B5C681B6839687A68C91862411E4B5C681B68994228D1A24226D11B4BDB6804221A43194BDA60194B1A68194B1A60194B1B68002B02D0174B1B685F
:403600009847114B1B681D0000231E000D4B5C681B685B1974410F4A1268D2B218002100FFF7B8FC03000C00084A13605460C046BD4603B0F0BDC0462414002008140020E1
:403640000C1400202827002010140020181400203C270020F00F00203427002020140020F0B591B000AF78623962002300243B637C637B6A1800FFF72BF90300FB62564BB4
:40368000FB6319E0FB6B1800FFF770F8031E08D03B6B7C6B514900225B1854413B637C6307E03B6B7C6B4E4900225B1854413B637C63FB6B0133FB63FA6BFB6A9A42E1D30C
:4036C0007B6A1800FFF7EAF80300BB62BB6A5A1E444B5200D35ABB63BB6A022B08D9FB6A1800FFF743F8031E02D0BB6B0133BB63BB6B3D4A5343BB610023FB613B6B7C6B55
:40370000B969FA695B1854413B637C637B6A1800FFF7AAF80200344B5343344A944663443B6100237B613B6B7C6B39697A695B1854413B637C633B6A1800FFF76BF8030089
:40374000BB633B6A1800FFF751FA031E0BD03B6A1800FFF779F8031E05D0BB6B0B2B02D8BB6B0C33BB63BB6BE12212015343BB600023FB603B6B7C6BB968FA685B185441DB
:403780003B637C633B6A1800FFF72AF8020013001B019B1A9B003B6000237B603B6B7C6B39687A685B1854413B637C633B6A1800FEF7FEFF03001D0000231E003B6B7C6B6B
:4037C0005B1974413B637C633B6B7C6B18002100BD4611B0F0BDC046B20700000085E2018033E1017CA302008051010080AEFEFFF0B5A1B002AF7865BA64FB6400233B674C
:403800009C4BBB669C4B7B6619E07B6EBB600023FB60BB6CFC6CB968FA685B1A9441BB64FC64BB6E0133BB66BB6E1800FEF79EFF031E02D0914B7B6601E08F4B7B667B6EDC
:403840001D0000231E00FB6CB342DED8FB6CB34202D1BB6CAB42D8D80123FB66BA6EFB6E1100180000F010F90200854B53437B6618E07B6E3B6000237B60BB6CFC6C3968BA
:403880007A685B1A9441BB64FC64FB6E0133FB66BA6EFB6E1100180000F0F6F80200784B53437B667B6E3B6400237B64FB6C7A6C934207D3FB6C7A6C9342DAD1BB6C3A6C6B
:4038C0009342D6D2B86CF96C6D4A002302F08EF903000C003B663A6E694B53437B667B6EBB630023FB63FB6CFA6B93420CD3FB6CFA6B934203D1BB6CBA6B934204D37B6E8E
:403900003B6200237B6203E0002300243B627C62BB6CFC6C396A7A6A5B1A9441BB64FC643B6E01333B66B86CF96CE1221201002302F05CF903000C007B677B6FE1221201EE
:4039400053437B669023FB181B68002B1DD0FB6C002B06D1FB6C002B0ED1BB6C494A93420AD901233B677B6F0C2B02D97B6F0C3B00E07B6F7B6708E000233B677B6F002BC2
:4039800001D07B6F00E00C237B677B6E3B6300237B63FB6C7A6B93420CD3FB6C7A6B934203D1BB6C3A6B934204D37B6EBB610023FB6103E000230024BB61FC61BB6CFC6CB0
:4039C000B969FA695B1A9441BB64FC64B86CF96C3C22002302F00AF903000C00FB65FA6D13001B019B1A9B007B667B6EBB620023FB62FB6CFA6A93420CD3FB6CFA6A93429F
:403A000003D1BB6CBA6A934204D37B6E3B6100237B6103E0002300243B617C61BB6CFC6C39697A695B1A9441BB64FC64BA6E396EFB6E1800FFF73AF902007B6D5A60BB6C73
:403A4000FC6D7A6F396F90203818006800932300FFF7DCF802007B6D1A60BA6EF96E3B6E1800FFF78FF902007B6D9A60C046BD461FB0F0BDB20700008033E1010085E20113
:403A800080510100C1A8000080B584B000AF786039607B68013B0A4AD35CFB607B68022B08D13B681800FEF761FE031E02D0FB680133FB60FB681800BD4604B080BDC046F3
:403AC00094A3020080B500AF0B4B802252001A600A4B0C221A60022000F092F8084B180000F050F8064B180000F05CF8002000F039F8C046BD4680BD00012040240120408F
:403B0000FFFF000090B583B000AFFC1D01F0ADFC03002370094B094A126801210A431A60FB1D1B78180001F0A4FC1821012000F049F8C046BD4603B090BDC04600002040BF
:403B400080B500AF064B1B78002B04D1FFF7BAFF034B01221A70FFF7D5FFC046BD4680BD2814002080B582B000AF7860044B7A681204120C1A60C046BD4602B080BDC0469C
:403B80000801204080B582B000AF7860044B7A681204120C1A60C046BD4602B080BDC0461401204080B582B000AF7860044B7A681204120C1A60C046BD4602B080BDC04691
:403BC0000C01204090B585B000AF786039600F23FC1801F04AFC03002370084B79683A6891400A001A600F23FB181B78180001F040FCC046BD4605B090BDC04608002040EA
:403C000080B582B000AF7860034B7A681A60C046BD4602B080BDC0463801204080B500AF024B1B681800BD4680BDC0463C01204080B582B000AF7860034B7A681A60C04608
:403C4000BD4602B080BDC0463001204080B582B000AF786000F050F87B68180000F00AF8032000F015F800F03BF8C046BD4602B080BDC04680B582B000AF7860034B842186
:403C80007A685A50C046BD4602B080BD0000002090B585B000AF0200FB1D1A700E23FB600B23FC1801F0E1FB030023700A4B0A4A12680A491140FA1D1078FA6890400200C8
:403CC0000A431A600B23FB181B78180001F0D1FBC046BD4605B090BD10E400E0FF3FFFFF80B500AF034B802292021A60C046BD4680BDC04600E100E080B500AF034B802276
:403D000092021A60C046BD4680BDC04680E100E080B582B000AF00237B6007E07B680021180000F049FC7B6801337B607B68002BF4D000F009F8002000F056FB00F08CF911
:403D4000C046BD4602B080BD80B582B000AF244B1B68DAB2234B1A70224B1B787B607B680F2293437B60204B1B78DBB21A000F2313407A6813437B607B68F02293437B603C
:403D8000194B1B78DBB21A00F02313407A6813437B60134B7A681A60144B154A1A60154B154A1A60154B1B687B607B680F2293437B607B68062213437B60104B7A681A604B
:403DC0001020FDF7E5FC0E4B19001020FDF750FC03211020FDF772FCC046BD4602B080BD00FF28404C27002062F2FF0F0800284000020001040028400008A0010004024004
:403E0000954B000080B582B000AF00F0DBFF00F08BFF0021002000F099FF0021002000F0E3FFFF2000F068FF402000F0B3FF084B1B687B607B68074A13437B60044B7A68AD
:403E40001A601020FDF78EFCC046BD4602B080BD040028400010088080B584B000AF334B1B78002B04D1FFF753FF304B01221A70FFF7C8FF2E4B2E4A12682E490A401A6022
:403E80000023FB601CE00023BB602B4BBA689200D3581B0C7B607A6813009B009B181A019B186421180001F02BFD03007B60234A7968FB68180000F031FBFB680133FB6077
:403EC000FB68002BDFD00023FB6019E01B4AFB68D3181B785B08D9B2194AFB68D3180A1C1A70164AFB68D3181B7801335B08D9B2124AFB68D3180A1C1A70FB680133FB60CA
:403F0000FB68002BE2D00A4B094A1268802149040A431A600B4B0B4A12688021C9030A431A60C046BD4604B080BDC0463214002008002840FFFFFFFC04100020FC0F0020E3
:403F4000001000200400284080B584B000AF0200FB1D1A70FB1D1A78FB1D01321A70FB1D1B78012B0CD0FB1D1A78094B1100180000F054FA0300FB60FB68002BEAD000E0CC
:403F8000C046FB1D1B781800BD4604B080BDC046F40F002080B582B000AF7860084B00221A707B68DAB2074B1A70054B81221A707B68180000F03AF9C046BD4602B080BD50
:403FC0002C1400202D14002080B500AF124B00221A70124BFF221A70104B1B78DBB21800FFF7B2FF03001A000C4B1A700B4B1B78DBB2002B0DD1084B1B78DBB20122134368
:40400000DAB2054B1A70054B1B78DBB2180000F00DF9C046BD4680BD2C1400202D14002080B500AF044B1B78DBB21A00012313401800BD4680BDC0462C14002080B582B08C
:4040400000AF7860034B7A685200D35A1800BD4602B080BD3014002080B582B000AF00237B6006E07B68180000F062F87B6801337B607B68002BF5D0C046BD4602B080BDA0
:4040800090B587B000AF786002237B6101231322BA18191C0B1CDB185B18137001221223FB1892001A701123FC1801F0DEF9030023701D4B7A699200D3581B68FB60122344
:4040C000FB181B780F229A401300DA43FB681340FB601223FB181B7804229A401300FA681343FB60114B7A699200D3580F4A796989008A581268132179180978072088407C
:404100000100C9430A401A60074B7A699200D358FA681A601123FB181B78180001F0A9F9C046BD4607B090BDB0A30200CCA3020090B589B000AF786002237B610122132329
:40414000FB1892001A7001231222BA18191C0B1CDB185B1813700023FB61304A7B68D3181B78BB612E4B7A699200D3582C4A796989008A5812681321791809780F20884098
:404180000100C9430A401A60BB69022B01D10023BB61BB69012B01D00623FB611123FC1801F063F9030023701E4B7A699200D3581B68FB601223FB181B7807229A40130023
:4041C000DA43FB681340FB601223FB181B78FA699A401300FA681343FB60124B7A699200D358FA681A601123FB181B78180001F040F90D4B7A699200D3580B4A79698900A6
:404200008A5812680121080001218140C9430A401A60C046BD4609B090BDC04650270020B0A30200CCA30200E8A3020090B587B000AF78601723FB1800221A701723FB18FD
:404240001A78404B9200D3583B6100F0BBFD00F06BFD3D4A7B68D3181B789BB2013B9BB20021180000F072FD384A7B68D3181B789BB2013B9BB20021180000F0B5FDFF20BF
:4042800000F03AFD402000F085FD1020FDF780FA2F4B802252021A60C0462D4B1B681B0C1B04FAD12B4B01221A601020FDF786FA1020FDF757FA1020FDF76AFA264B1B68C3
:4042C000FB60FB68254A1340FB60254A7B68D3181B781900234A7B68D3181B781B040B43FA681343FB601C4BFA681A601E4B1B68FB60FB681D4A1340FB60FB681C4A13438B
:40430000FB601020FDF72EFA7B681800FFF7B8FE0B23FC1801F0A9F803002370124BFA681A60002001F098F8094B3A691A600B23FB181B78180001F09CF8C046BD4607B049
:4043400090BDC046041000200C100020081000200C002840140028400800284000FF80FFFC0F00200010002004002840FF1FDFFF2000200080B584B000AF7860144B1B688F
:4043800099B2144B7A685200D1527B681800FFF7CFFE1020FDF7FCF90F4B1B68FB60FB680E4A1340FB60FB68A02212021343FB60094BFA681A600A4B094A126809490A40AC
:4043C0001A601020FDF7CEF9C046BD4604B080BD0C0028403014002004002840FF1FDFFF0800284000FF80FF80B584B000AF78607B68032213407B60074B1B68FB607B68F7
:404400005B02FA681343FB60034BFA681A60C046BD4604B080BDC0460400284080B584B000AF786039603B68DB08FB603B680722134001229A400B23FB181A707A68FB68E0
:40444000D3181B780B22BA1812781340DBB2002B01D0012300E000231800BD4604B080BD80B586B000AFF860B9607A60BB68DB087B61BB680722134001229A401323FB18FA
:404480001A707B68002B0DD0FA687B69D318F9687A698A1811781322BA1812780A43D2B21A700EE0FA687B69D318F9687A698A181278132179180978C943C9B20A40D2B2D1
:4044C0001A70C046BD4606B080BDC04680B584B000AF78600023BB600023FB6015E07B681800FFF757FDC046FFF79AFD0300012BFAD07B681800FFF7A1FD03001A00BB68EF
:404500009B18BB60FB680133FB60FB68002BE6D0BB689BB21800BD4604B080BD90B587B000AFF860B9607A601423FB1800221A801723FB1880221A707A68FB68D3180022B4
:404540001A707A68FB68D3187968FA688A1811781722BA1812780A43D2B21A701423FC18FB681800FFF7B2FF030023801423FB181A88BB689A420ED27A68FB68D318796834
:40458000FA688A181278172179180978C943C9B20A40D2B21A701723FB181722BA18127852081A701723FB181B78002BC9D1C046BD4607B090BDC04680B582B000AF7860D8
:4045C00039603B68D9B2044A7B68D3180A1C1A70C046BD4602B080BD5027002080B584B000AF78600F23FB1816497A688A1812781A70154B7A685200D15A144B7A6852001B
:40460000D152134A7B68D31800221A70114A7B68D31800221A700F23FB181B780F22BA1812780D49895C0D4AD154074B7A685200D15A0B4B7A685200D152C046BD4604B074
:4046400080BDC046ACA302003014002034140020381400203C14002024100020441400205827002080B582B000AF78607B681800FFF790FCC046FFF7D3FC031EFBD17B688D
:404680001800FFF7ABFFC046BD4602B080BDC04680B582B000AF00237B6006E07B681800FFF7E0FF7B6801337B607B68002BF5D0C046BD4602B080BD80B582B000AFFFF7B1
:4046C00083FCC046FFF7ACFC031EFBD100237B6011E07A680B4B11001800FFF79FFE03003B603B68002B03D07B681800FFF776FF7B6801337B607B68002BEAD0C046BD465F
:4047000002B080BDF40F002090B587B000AF78600F23FB187A497A688A1812781A700F23FB181A780E23FB1876498A5C1A701023FB18754A796849008A5A1A80734B1B787C
:40474000002B15D0724B7A685200D25A1023FC181023FB181B881100180000F0FDF9030023806B4B7A685200102179180988D152684B7A685200D35A1022BA1812889A4239
:4047800012D3654A7B68D31800221A70614B7A685200D25A1223FB181021791809888A1A1A8001237B610CE05A4B7A685200D15A1223FB181022BA1812888A1A1A800023CF
:4047C0007B617B69002B2AD10F23FB181B78534AD35C9BB21222BA1812889A421FD94E4A7B68D3181A784E497B68CB181B789A4209D37B681800FFF7F1FE474A7B68D3188F
:4048000000221A7051E0444A7B68D3181B780133D9B2414A7B68D3180A1C1A7045E00E23FB181B789BB21222BA1812889A420DD90F23FB181B78394AD35C9BB21222BA185C
:4048400012889A4231D27B69002B2ED1314B7A685200D35A1B02BB60324A7B68D3181B781A00BB681343BB601023FB181B88BA68D318BB60274B7A685200D35A1A00BB68F0
:404880009B1ABB60BB681B0A99B2224B7A685200D152BB68D9B2234A7B68D3180A1C1A701D4A7B68D31800221A700E23FB181B789BB21222BA1812889A4217D97B69002BB8
:4048C00014D01223FB181B88FF2B05D9164A7B68D318FF221A700EE01223FB181B88D9B2114A7B68D3180A1C1A7004E00E4A7B68D31800221A70C046BD4607B090BDC04602
:40490000ACA3020018100020301400201110002058270020341400205C2700201C10002010100020381400203C14002080B582B000AF78607B681800FFF7E6FEC046BD465B
:4049400002B080BD80B582B000AF00237B6011E07A680C4B11001800FFF760FD03003B603B68002B03D07B681800FFF7DFFF7B6801337B607B68002BEAD0C046BD4602B00B
:4049800080BDC046F40F002080B584B000AF78600F23FB1841497A688A1812781A700F23FB181A780E23FB183D498A5C1A700F23FB181A780D23FB183A498A5C1A700F23EA
:4049C000FB181A780C23FB1837498A5C1A700B23FB180F22BA1812781A707A68334B11001800FFF71BFD031E1CD0314A7B68D3181B7819000E23FB181A780D23FB181B7843
:404A0000D31A99423BDA7968284B00221800FFF727FD0B23FB181B78264A0C2179180978D1542CE0224A7B68D3181B7819000E23FB181A780D23FB181B78D318994216DBF4
:404A40000B23FB181B781B4AD25C013AD1B2194AD1540B23FB181B78164AD35C002B0ED17968124B01221800FFF7FAFC07E00B23FB181B780F4A0C2179180978D1547A685D
:404A80000A4B11001800FFF7C9FC031E01D0012300E000231800BD4604B080BDACA30200141000202010002024100020401400203C1400204414002080B586B000AF786011
:404AC00000237B6101231A007B69D318FB6000233B617B691800FFF757FF031E01D001233B617B6901337B617A69FB689A42F0D33B691800BD4606B080BDC04680B584B09C
:404B000000AF78600F23FB1800221A7001210E23FB180F22BA1812788A181A700F23FB1819780C4B01221800FFF79AFC0F23FB181A780F23FB1801321A700F23FA180E239C
:404B4000FB1812781B789A42E8D3C046BD4604B080BDC046F40F002080B584B000AF0200BB1D1A803B1D0A1C1A80BB1D1A883B1D1B88D318FB603B1D1B885B00FA68D31849
:404B8000FB60FB689B08FB60FB689BB21800BD4604B080BD80B500AF1020FCF7F9FD2D4B01221A602C4B1B78DBB21800FFF7E2FB2A4B1B78DBB25BB2002B08DA274B1B7835
:404BC000DBB201229343DAB2244B1A703CE0224B1B78DBB21800FFF7B7F903001A001E4B1A701D4B1B78DBB2002B06D11A4B1B78DBB21800FFF71AFB26E0184B1B78DBB278
:404C000001229343DAB2154B1A70144B1B78DBB21A004023134017D0114B00221A700FE00F4B1B781A000E4B1B7819000D4B595C0D4B99540A4B1B780133DAB2084B1A70F5
:404C4000074B1B78002BEBD01020FCF78BFDC046BD4680BD140028402D1400202C1400204614002054270020F40F002080B500AF0B4B180000F018F80A4B01221A70FFF7B9
:404C8000EBF8FFF719FD00F0EDF8064B1A001C211C2000F077F9FFF797F9C046BD4680BD612700206027002080B582B000AF78607B6804221A707B6801331A7800210A403C
:404CC000111C1B220A431A705A7800210A405A707B6801225A727B681A7B00210A40111C0B220A431A735A7B00210A405A73C046BD4602B080BDC04680B582B000AF78608A
:404D0000C046074B1B68002BFBDB054B7A68120204490A431A60C046BD4602B080BDC046000001404000008080B500AFC046054B1B68002BFBDB034B034A1A60C046BD4662
:404D400080BDC046000001404000004080B584B000AF0200BB1D1A807B1D0A1C1A700C4B1B6807221340FB60BB1D1B881A02FB681A437B1D1B78DB00FF210B401343BB6071
:404D8000034BBA681A60C046BD4604B080BDC0460003014080B582B000AF7860C046074B1B68002BFBDB054B7A68120204490A431A60C046BD4602B080BDC0460000014062
:404DC0004100008080B500AFC046054B1B68002BFBDB034B034A1A60C046BD4680BDC046000001404100004080B584B000AF0200BB1D1A807B1D0A1C1A700C4B1B6807223A
:404E00001340FB60BB1D1B881A02FB681A437B1D1B78DB00FF210B401343BB60034BBA681A60C046BD4604B080BDC0460403014080B500AF00F036F8C046BD4680BDC0460B
:404E400080B500AF064B064A1268802109060A431A6000F019F800F01FF8C046BD4680BD0000254080B500AF064B1B78002B04D1FFF7DEFF034B01221A70FFF7E1FFC04697
:404E8000BD4680BD4814002080B500AF0A20FCF769FCC046BD4680BD80B500AFC046BD4680BDC04680B500AF214B00221A60214B214A1A60214B224A1A60224B00221A60C2
:404EC000214B224A1A60224B1D4A1A60214B00221A600A20FCF75CFC03210A20FCF7EEFB1D4B19000A20FCF7C3FB1C4B00221A601B4B00221A601B4B5222FF321A601A4B20
:404F000000221A60194B00221A60194B00221A60184B02221A70184B00221A70174B00221A80174B00221A80C046BD4680BDC0460000254060002540000800400003254053
:404F40000701008004032540100325401000FE000002254004022540CD4F0000C80E2540880E2540480F2540080F2540C80F2540880F25407F2700207E27002080270020D1
:404F80008227002080B584B000AFF860B9607A607B68002B10D00A20FCF7FAFB084B7A681A60FB689AB2074B1A80BB689AB2064B1A800A20FCF7D6FBC046BD4604B080BD39
:404FC00088270020842700207C27002080B588B000AF924B1B68002B02D0904B1B6898478F4B1B88FB618F4B1B68FB608E4B1B68BB60FA680223FF33134048D08B4B8B4AC7
:405000001268520052081A60894B1B78DBB220229343DAB2864B1A70854B1B78DBB210221343DAB2824B1A70824B1B68102213400ED17B4B1A88804B1B889A4210D07C4B75
:405040001B78DBB208221343DAB2794B1A7007E0774B1B78DBB202221343DAB2744B1A70764B764A126876490A401A60754B00221A60704B00221A60734B02221A706B4B4B
:405080006A4A1268802109060A431A60ACE1BB681022134002D06D4B00221A60BB680A22134000D107E16A4B1B680422134000D186E0684B1B687B60634B1B78012B04D05B
:4050C000022B1ED0002B28D072E0634B1B88002B13D0624B01221A60614B1A68FB69D3187A68D2B21A70FB690133FB615A4B1B88013B9AB2584B1A805EE0584B02221A608A
:405100005AE0564B01221A607B68DBB29AB2524B1A804D4B00221A704EE04F4B1B881B027A6813437B604F4B1B881A007B689A423AD94A4B01221A607B68FB614A4B1B8853
:405140001A007B689A4206D9474B1A887B689BB2D31A9AB200E000223F4B1A803E4B1B88072B03D8384B01221A7018E03A4B1B88082B0AD1314B314A1268A02109020A4393
:405180001A60304B00221A6009E02C4B2B4A1268802189010A431A602A4B08221A60FB699AB2254B1A8007E02C4B02221A6003E00020FCF719FBC0462C4B04221A607AE0CD
:4051C0001E4B1A6880239B01134000D173E0BB68022213400DD0264B1B681F2213403B61164B164A126816490A401A6001237B614EE0194B1B88083B9AB2174B1A80164BF4
:405200001B88082B05D8144B1B883B6100237B613EE008233B6101237B6139E04C14002080270020400F2540000E2540000025407E270020880F25408227002060002540FE
:40524000FF5FFFFFC80F25407F270020880E2540CC0F254040032540501400206C00254088270020842700207C270020C00F254008032540604B1A68FB69D2185F4B1B68EF
:40528000DBB21370FB690133FB613B69013B3B613B69002BEED17B69002B09D1584B584A1268802109020A431A60564B00221A60554B0C221A60BB68022213406DD0FB6806
:4052C0001022134027D04F4B00221A604F4B00221A600223BB614E4B1B881A00FB699A4203D0BB6908221343BB61BB69FA681340BB61484B1B78DBB21A00BB691343BB6104
:40530000BB6920229343BB61BB69DAB2414B1A70414B02221A70FB68402213403AD03D4B1B78DBB220221343DAB23A4B1A70384B1B88FB61394B1B681022134018D0384B9F
:405340001A88FB699BB2D31A9AB2364B1A80364B354A1268802149020A431A60324B324A126832490A401A60284B10221A6002E0244B04221A602E4B01221A602D4B2E4A91
:405380001A602E4B2D4A126810210A431A602C4B01221A60274BFA681A602A4B1B680422134021D01F4B1B88002B11D0264A124B1968FB69CB181B78DBB21360FB69013374
:4053C000FB61184B1B88013B9AB2164B1A8002E01D4BFF221A601D4B1B681F221340082BE0D11B4B10221A60FB699AB2194B1A80C046BD4608B080BD88270020400325404B
:4054000060002540C80F2540C00F2540880F2540822700207E2700207F27002064002540842700205014002004022540FFFFFEFF800E2540400F2540FF0F0000480F2540F8
:405440006C002540000E25404002254008022540800F2540802700200230800803D00138FDD1C046C046C0467047EFF3108072B6704780F31088704790B583B000AFFC1D67
:40548000FFF7F3FF03002370074B074A126804218A431A6030BFFB1D1B781800FFF7E9FFC046BD4603B090BD10ED00E080B582B000AF78600A00BB1C1A80BB1C1A887B68AA
:4054C0001A60C046BD4602B080BDC04680B582B000AF78600A00BB1C1A80BB1C1A887B681A60C046BD4602B080BDC04680B584B000AF494B1B78DBB21B02484A1278D2B26E
:405500001343FB60464B1B78DBB21B02454A1278D2B21343BB60BB68434A934207D1FB68072B04D1414BBB600423FB6009E0BA68D4231B019A4204D1FB68042B01D13B4B35
:40554000BB603B4BBA681A603A4BFA681A603A4B1B78DBB21B02394A1278D2B21343FB60FA6880239B019A4202D0FB68002B01D1334BFB60334BFA681A60334B1B78DBB209
:405580001B02324A1278D2B21343FB60FB68304A934206D0FB682F4A934202D0FB68052B01D12D4BFB602D4BFA681A602C4B1B681B097B602B4B1B68AA2B29D17B68012B2C
:4055C00026D9214B1B78DBB20E2B21D1264B1B78DBB29BB21B0299B2244B1B78DBB29AB2BB1C0A431A80224BBA1C12881A60214B1B78DBB29BB21B0299B21F4B1B78DBB2F4
:405600009AB23B000A431A801C4B3A0012881A60C046BD4604B080BD59F1FF0F58F1FF0F5FF1FF0F5EF1FF0F580B0000580D00006C002E4074002E405BF1FF0F5AF1FF0FAC
:405640000220000078002E405DF1FF0F5CF1FF0F0F0F000005050000050F000080002E40EC0F00F0E00F00F06DF2FF0F6CF2FF0F84002E406FF2FF0F6EF2FF0F94002E40CD
:4056800080B582B000AF0200BB1D1A80BB1D1B881800FCF7DBF8C046BD4602B080BDC04680B582B000AF78607B681800FCF7A8F8C046BD4602B080BD80B500AF00F000F9C8
:4056C000C046BD4680BDC04680B500AF00F004F9C046BD4680BDC04680B500AF00F0FCF8044B180000F0B6F8032000F0C1F8C046BD4680BDF158000080B500AF034B1800CF
:4057000000F094F8C046BD4680BDC046F158000080B500AF014B1800BD4680BD0202000080B582B000AF78602B231800BD4602B080BDC04680B582B000AF78602B2318002C
:40574000BD4602B080BDC04680B582B000AF78602B231800BD4602B080BDC04680B582B000AF78602B231800BD4602B080BDC04680B582B000AF78602B231800BD4602B090
:4057800080BDC04680B582B000AF78602B231800BD4602B080BDC04680B582B000AF78602B231800BD4602B080BDC04680B582B000AF78602B231800BD4602B080BDC046C2
:4057C00080B500AF2B231800BD4680BD80B582B000AF0200FB1D1A702B231800BD4602B080BDC04680B582B000AF786039602B231800BD4602B080BD80B500AFC046BD463B
:4058000080BDC04680B582B000AF786001231800BD4602B080BDC04680B582B000AF786001231800BD4602B080BDC04680B582B000AF786000F050F87B68180000F00AF8CE
:40584000032000F015F800F03BF8C046BD4602B080BDC04680B582B000AF7860034B7A681A67C046BD4602B080BDC0460000002090B585B000AF0200FB1D1A700623FB60D9
:405880000B23FC18FFF7F1FD030023700B4B0B4A1268C0218A431100FA1D1078FA68904002000A431A600B23FB181B781800FFF7E0FDC046BD4605B090BDC0460CE400E00E
:4058C00080B500AF034B802252011A60C046BD4680BDC04600E100E080B500AF034B802252011A60C046BD4680BDC04680E100E080B500AF13F0AEFFC046BD4680BDC046EC
:40590000002243088B4274D303098B425FD3030A8B4244D3030B8B4228D3030C8B420DD3FF22090212BA030C8B4202D31212090265D0030B8B4219D300E0090AC30B8B42F6
:4059400001D3CB03C01A5241830B8B4201D38B03C01A5241430B8B4201D34B03C01A5241030B8B4201D30B03C01A5241C30A8B4201D3CB02C01A5241830A8B4201D38B02B7
:40598000C01A5241430A8B4201D34B02C01A5241030A8B4201D30B02C01A5241CDD2C3098B4201D3CB01C01A524183098B4201D38B01C01A524143098B4201D34B01C01A2C
:4059C000524103098B4201D30B01C01A5241C3088B4201D3CB00C01A524183088B4201D38B00C01A524143088B4201D34B00C01A5241411A00D20146524110467047FFE788
:405A000001B5002000F0F0F802BDC0460029F7D076E7704703460B437FD4002243088B4274D303098B425FD3030A8B4244D3030B8B4228D3030C8B420DD3FF22090212BAFE
:405A4000030C8B4202D31212090265D0030B8B4219D300E0090AC30B8B4201D3CB03C01A5241830B8B4201D38B03C01A5241430B8B4201D34B03C01A5241030B8B4201D32A
:405A80000B03C01A5241C30A8B4201D3CB02C01A5241830A8B4201D38B02C01A5241430A8B4201D34B02C01A5241030A8B4201D30B02C01A5241CDD2C3098B4201D3CB01F3
:405AC000C01A524183098B4201D38B01C01A524143098B4201D34B01C01A524103098B4201D30B01C01A5241C3088B4201D3CB00C01A524183088B4201D38B00C01A52417F
:405B000043088B4201D34B00C01A5241411A00D201465241104670475DE0CA0F00D04942031000D34042534000229C4603098B422DD3030A8B4212D3FC22890112BA030A24
:405B40008B420CD3890192118B4208D3890192118B4204D389013AD0921100E08909C3098B4201D3CB01C01A524183098B4201D38B01C01A524143098B4201D34B01C01A4B
:405B8000524103098B4201D30B01C01A5241C3088B4201D3CB00C01A524183088B4201D38B00C01A5241D9D243088B4201D34B00C01A5241411A00D20146634652415B10FA
:405BC000104601D34042002B00D54942704763465B1000D3404201B5002000F005F802BD0029F8D016E770477047C046002B11D1002A0FD1002900D1002802D00021C94332
:405C0000081C07B4024802A14018029003BDC046D9FFFFFF03B4684601B5029800F006F8019B9E4602B00CBC7047C046F0B54D46564644465F46F0B4924683B004000D00F5
:405C400099468B422FD82CD04946504600F0AEF829000600200000F0A9F8331A9846203B9B4600D574E053465A4693401F005346424693401E00AF4229D826D05B46A41BC5
:405C8000BD41002B00DA79E0002200230092019301235A4693400193012342469340009319E08242D0D900220023009201930C9B002B01D01C605D600098019903B03CBC56
:405CC00090469946A246AB46F0BDA342D6D900220023009201934346002BE8D0FB0772081A4346467B080EE0AB4201D1A2420CD8A41A9D41012024196D410021013E24185D
:405D00004D41002E06D0AB42EED9013E24196D41002EF8D15B460098019900196941002B22DB2B005A46D3402A004446E2401C005B461500002B2CDB26009E403300260029
:405D40004746BE403200801A994100900191AEE7424620239B1A5246DA40414613004A468A4017001F4382E7424620239B1A2A0046469A402300F3401343D5E742462023F0
:405D800000219B1A0022009101920122DA40019282E74246202326009B1ADE402F00B446974066463B003343C9E7C04610B5002903D100F007F8203002E0081C00F002F8C6
:405DC00010BDC0461C2101231B04984201D3000C10391B0A984201D3000A08391B09984201D30009043902A2105C40187047C04604030202010101010000000000000000E3
:405E000010B50A22002100F001F910BD014B18687047C046A81300200E4B70B500251E000D4CE41AA410A54204D0AB00F35898470135F8E724F082FB084B00251E00084C49
:405E4000E41AA410A54204D0AB00F35898470135F8E770BD48A5020048A5020048A5020050A5020030B50024A24208D0035D651C0C5DA34201D0181B02E02C00F4E70020D9
:405E800030BD002310B59A4203D0CC5CC4540133F9E710BD03008218934202D019700133FAE770470EB410B59DB002A9029008610B48822488604861012040421FABC881EA
:405EC000084804CBA400006801938C8100F00CF90023029A13701DB010BC08BC03B01847FFFFFF7FA8130020F0B51E00454B87B01B680192029308220B00059003911C78B2
:405F000002995D1C09194878104001D02B00F6E72D2C04D19D1C5C780123009304E000902B2C01D15C789D1C002E02D0102E0AD162E0302C5ED120222B789343582B54D15D
:405F400010266C780235009F31007B1E9F412E4BFF183800FFF75AFD380004913100FFF7CFFC00230322070094461800029A121951780422114201D0303C07E0624611404C
:405F800017D03722012900D02032A41AA64210DD5A1C0BD0B84207D802D1049B9C4203DC70430123201801E001235B422C780135DCE75A1C0BD10098059A431E9841124BFB
:405FC000C01822231360019B002B0AD117E0009A002A00D04042019A002A10D0039A002B00D06A1E019B1A6009E03024002EAAD10826A8E70A26A6E7302C9CD0A3E707B01E
:40600000F0BDC046AC130020FFFFFF7F10B513000A00010002480068FFF766FF10BDC046A8130020F0B58E6885B007000C00039201939E4243D890238A89DB001A423ED0A2
:4060400003250969236801985B1A029363695D43EB0F5D19029B6D1001331B18AB4200D91D00530510D52900380000F037FB061E14D0029A2169FFF704FFA289194B13404F
:4060800080221343A38112E02A00380000F086FB061E0CD12169380000F0D4FA0C23402201203B60A38940421343A38117E0029B2661F61826606561019EED1AA560019B4D
:4060C000B34200D21E0032000399206800F0A5FA0020A3689B1BA36023689E19266005B0F0BDC0467FFBFFFFF0B59FB0029005938B890F0016001B0610D50B69002B0DD170
:40610000402100F0EBFA38603861002804D10C23029A01381360D8E040237B61002306AD6B6120336B761033AB7634002378002B03D1A31B049312D003E0252BF9D001341D
:40614000F4E7A31B320039000298FFF76BFF431C00D1B4E06A69049B944663446B612378002B00D1ABE00122002352426A6002A95432521801342B60EB60AB601370AB6594
:40618000534E21780522300000F03CFA002807D00123801B83402A68013413432B60EFE72B68DA0604D55322202102A8121811701A0704D553222B2102A812181170227828
:4061C0002A2A03D0099B00200A210EE0059A111D12680591002A01DB099204E05242EA60022213432B6001340BE02278303A092A04D84B4301349B180120F6E7002800D0B7
:40620000099323782E2B1ED163782A2B0AD1059B02341A1D1B680592002B01DA01235B42079310E000230A201A0001346B6021783039092904D84243013452180123F6E7C0
:40624000002B00D00792234E21780322300000F0D9F9002806D04023801B83402A68013413432B60217806221B48661C297600F0C9F9002812D0194B002B06D10722059BD2
:40628000073393430833059314E005AB00933A00134B2900029800E000BF07E005AB00933A000F4B2900029800F08AF80390039B013304D06B69039A9B186B6135E7BB894E
:4062C0000B985B0601D5012040421FB0F0BDC04607A502000DA5020011A502000000000025600000F7B5170001938A680B6900900C00934200DA130022003B604332127829
:40630000002A01D001333B6023689B0602D53B6802333B60062523681D401ED0230043331B785A1E9341226892061CD53020E1184331087021005A1C45310978A21843329F
:40634000023311700FE022000123193201990098089EB047431C0ED00135E3683A689B1A9D42F0DBDAE72200019943320098089DA847431C02D10120404220E006232068B5
:40638000E1683A6803400025042B03D18D1AEB43DB171D40A3682269934201DD9B1AED180027BD420AD0220001231A3201990098089EB047431CDED00137F2E70020FEBD06
:4063C000F0B58BB006920A0043320793059004920A7E0C00109B6E2A00D1ABE011D8632A22D009D8002A00D1B5E0582A00D0C5E045310A70814A4FE0642A1DD0692A1BD0FB
:40640000BCE0732A00D1AAE009D86F2A29D0702A00D0B3E0202209680A43226037E0752A1FD0782A33D0A9E00E001A684236111D196013683370A4E021681A68080606D4BF
:40644000490604D5111D19600023D55E02E0111D19601568002D3BDA2D23049A6D42137036E021681A68080606D4490604D51568111D1960ADB202E0111D196015685F4B2B
:40648000227E039308276F2A1DD00A271BE022007821453211705A4A19680392081D226818600D68100602D4500600D5ADB2D30702D520231A4322601027002D03D12023F8
:4064C00022689A4322602300002243331A7002E00A274A4B03936368A360002B09DB0422216891432160002D05D1049E002B11D07BE0002D79D0049E28003900FFF786FA54
:40650000039B013E5B5C280033703900FFF7F8F9051EF1D1082F09D12368DB0706D563682269934202DC3023013E3370049B9B1B23612BE009681A68080607D4490605D577
:40654000111D19601368A28A1A8004E0111D1960136862691A600023049E236116E01A68111D1960166800216268300000F04AF8002801D0801B6060636803E02600423615
:406580003270012323610023049A1370079B09AA00932100069B0598FFF7A4FE431C02D10120404227E02369320006990598079DA847431CF4D0236800259B070FD4099B09
:4065C000E068984217DA180015E022000123193206990598079EB047431CE1D00135E368099A9B1A9D42F0DBE9E72600039B42361B7833708EE70BB0F0BDC04618A502009B
:4066000029A50200C9B28218904204D003788B4202D00130F8E70020704710B5884202D98B18984201D3002305E09B1A013A08D3995C8154FAE7934203D0CC5CC454013379
:40664000F9E710BD70B50500002944D00C1F2368002B00DAE418280000F0D8F81E4A13681100002B02D16360146031E0A3420DD92268A018834203D118685B688218226028
:4066800063600C6024E0A24203D813005A68002AF9D11E689819A0420BD12168711858181960824214D110685268411819605A600EE0A04202D90C232B6009E02168601879
:4066C000824203D1106852684118216062605C60280000F09CF870BD3C250020032370B5CD1C9D43083506000C2D01D20C2501E0002D01DBA94202D90C23336048E03000C0
:4067000000F084F8234B1C681A002100002913D00B685B1B0DD40B2B02D90B60CC181EE08C4202D1636813601AE04B6863600C0016E00C004968E9E7174C2368002B03D1C1
:40674000300000F051F820602900300000F04CF8431C18D00323C41C9C43A0420DD12560300000F054F8200007220B30231D9043C31A0ED05A42E2500BE0211A300000F060
:4067800033F8431CEBD10C233000336000F03FF8002070BD3C25002038250020F8B506000C001500002904D11100FFF797FF040018E0002A03D1FFF745FF2C0012E000F07E
:4067C00027F885420ED929003000FFF787FF071E07D021002A00FFF754FB21003000FFF731FF3C002000F8BD002370B5064C050008002360FAF750FD431C03D12368002B92
:4068000000D02B6070BDC0468C270020704770470B1F1A68101F002A04DA891804390B68D018043870470000134A1088810703D08107890F401A001D11791030484381B20B
:406840005088820703D08207920F801A001D800040180A494030098980B2CA0701D0503080B2890706D504495422091F09785143081880B2704700002C10002060140020EC
:4068800010B501F00BFF10BD10B501F0C9FF0BF0D1FD10BD10B501F007FF10BD10B500F055FA10BD10B50749044609780220002907D1204601F054FF002802D120460CF0D3
:4068C00063F810BDC811002070B504460120002C12D02368002B0FD0616800290CD0074D06222889208118462968FFF7CAFA6968606809780170002070BD00006014002093
:40690000FFB585B0002768460E9D07734F481C460078002802D0082009B0F0BD10990F9801900095029105A807C800F001F90028F2D16946264603AB84460873002C19D0FE
:40694000002115E08A00B75A082F09D990198078002805D0083FB7521878401C187005E0002914D00027B75290198770491CC9B2A942E7D360460028CED10F98002809D08F
:40698000109901F03BFA002804D00120C4E701208446EFE701F088FE2D480021416081600599016021888180022D07D3A1798171A17AC171A1890181218A418100211EE0AD
:4069C000481C19E082008B00A75AE65ABE46BE4211D26F463E80B4461E190296B678BE7001967646E6521719029EBB78B3706646A652019EBE70401CA842E3D3491CA942FF
:406A0000DED3134822460C3000906846037B0799069800F015F90028B8D168460B4C007B60700B480C3001F07BFE0028AED1084907480C3108F0E4FF0028A7D108F0FEFFC0
:406A40000028A3D10121217066E700002610002054140020F8B5054633480E460078002802D002242046F8BD002E5BD000242F49002D16D02A89D0070DD02868002808D023
:406A800003881B3BE12B04D24088FB2801D81B2801D2012409E0900707D56868002804D1F7E70020088108604860002CDAD11F482F8907811C481B21801D01804180042132
:406AC000017119490020891C0870F80705D016480622801D2968FFF7D4F91449B80703D56A681148127882700F480D46801D0860001F486001F05AFE0B48801D01F048FEB9
:406B000028890FF073F828890FF0DAF903461033FFF78AFE1F21C018890140180249308088809FE701249DE72610002060140020FFB58446384F1C460020BB883F780546CB
:406B400002460646002F11D100290ED0029999420BD36146002908D0002C06D00A99002906D02E4B0B99994202D2012004B0F0BD002144E0AB001F19BF78002F3BD0E35AA5
:406B8000002B38D07B43591889B22B0000F04AF8050410161C253100A7782388BC46FF27233BEB37BB4222D26346032B1FD322E0A388002B1FD0302B19D31CE02389002BAD
:406BC00019D0282B13D316E0A289002A13D01346134F233BBB420AD20DE0268A002A0AD033460F4F233BBB4201D2964203D901200EE0002001E000280AD16D1CEDB2099B1A
:406C00009D42B7D31C2463435B1802998B42ACD89642AAD8AAE700002610002079020000BAFF000030B47446641E2578641CAB4200D21D46635D5B00E31830BC1847000071
:406C4000FFB583B0002469460C801F4606468C80002806D00598002803D004983043800701D0012466E0002FFBD03449049809888842F6D3FEF740FDFEF726FD00F012FC2A
:406C8000002855D100F07AFD002851D12C49084601F0E8F805042D0C4AD12A480499066081800021C18007810C98007AC00704D0684601F012FD040007D10C98007A80079C
:406CC00003D501A801F01EFD0446BF1DFEB2002C20D13146059800F05DF804001AD10FF0FDF8040016D16A461088928808368518144AF1B29088D288AEB29319984207D37D
:406D0000401B801A80B201F09DFB050007D000E0FF25012400F05EFA002D04D008E0F8B200F01CF9F6E700F081FA07490120087000F0CAFB204607B0F0BD00002A100020B4
:406D4000816E00006C1400203210002010B503480078012801D101F017FA10BD3210002070B5084B0446DA889E8800205518B54206D81D68AA182260DA885118D98070BDA8
:406D8000032070BD6C14002001480089704700006C140020F0B587B007460D4600208900009006916846FFF7DBFF844600285DD1304800990160002117E02E4B88001A68C3
:406DC0000629115406D22C4C0419667882185670628805E0C419203CA67A8218567022891B68C018491C4280C9B2A942E5D300242DE0601CC2B2059025E01E4FA300396815
:406E00009600581840887118039604904E88B04217D938466F46FE80B6464F786E4677710297049F4F800168039F5E18767879184E700168764659184E800068029F1818A0
:406E40004770521CD2B2AA42D7D30598C4B2AC42CFD36046002809D168460699FFF780FF8446002802D1054900980860604607B0F0BD00003410002070A5020038100020C6
:406E80007047000010B5002809D005494A68002A05D0011F08788000105801F081FA10BD3410002010B50446FFF76EFFC0B2801DA0420CD307484068002808D0A1004058BF
:406EC00001F0E0F9002801D00470001D10BD002010BD000034100020F8B516460D460446FFF752FFC0B2801DA04203D20020C0430090F8BDB2B2E9B2684601F0E9F90099EC
:406F0000481C03D0024AA000526811500098F8BD34100020F8B50746FFF736FF801DC6B20A49002005460C680DE06178002907D06188B94202D32078FFF7B4FF002804D139
:406F4000241D6D1CEDB2B542EFD3F8BD3410002010B5002801D0FFF795FF10BD70B506460948002504680BE06178002905D062882078121D0023FFF7AFFF241D6D1CEDB2CB
:406F8000B542F1D370BD000034100020FFB581B00A9F16000C4620D000F0F2F8054604281BD0002F0CD03846FFF7B4FF20492A0151184860002810D03A460499FEF761FF12
:406FC0001B4928010E504618778101980570200406D47D20C000444304E0FF2005B0F0BD6404640C00F0BAF80746042807D000F04FFAA0420BD800F04BFA201A03E020467B
:4070000000F0AAFA0020F06035720020E6E700F03FFA009000F0B6FA00980121001B009000F0ECF802493A0151180098C860E6E778140020F8B5060116483418217A0429D8
:4070400003D0E068002802D017E00020F8BD00F01FFA054600F096FA00F0A0F804280CD001010C480F18F8680021451900F0C6F80020F860284600F06FFA6068054D002840
:4070800001D0FFF765FF042020720020A8516081E060DAE778140020FEB500266A46304601232549050169180D7A042D02D0C96800291BD000211154401CC0B20428F0D31E
:4070C00000246846005D002830D01B48210108184189476805680291002101604160042241810272C160002E02D015E01354E3E700F054F804280ED001010F480818019005
:40710000C6680021304600F079F801980021C160304600F021FA0126002D07D038460299A847002F02D03846FFF712FF641CE4B2042CC6D3FEBD0000781400200EB50020EB
:4071400005216A460090118150810348694600680FF029FD0EBD00003C100020074A0020010189180B7A042B02D0C968002903D0401CC0B20428F3D370470000781400209E
:407180000549002002015218127A042A03D0401CC0B20428F6D370477814002030B50A4B04200A4C00210A011219157A042D06D0D268002A03D09A4201D808461346491CA8
:4071C000C9B20429EFD330BDFFFF0000781400207047000030B50020074C05460423020111190B72A5504D60401C4D81C0B2CD600428F4D330BD00007814002030B5094C32
:4072000000231A011219157A042D04D0D568002906D02D18D5605B1CDBB2042BF1D330BD2D1AF7E778140020002070471CB5002469460C70142001902346054A05480FF026
